:020000040800F2
:10000000F00600202902000831190008D118000864
:100010002D19000821040008ED1A00080000000056
:10002000000000000000000000000000BD190008F2
:10003000250400080000000033190008BF1900085B
:10004000430200084302000843020008430200087C
:10005000430200084302000843020008430200086C
:10006000430200084302000843020008430200085C
:10007000430200084302000843020008430200084C
:10008000430200084302000843020008430200083C
:10009000430200084302000843020008430200082C
:1000A000430200084302000843020008430200081C
:1000B000430200084302000843020008430200080C
:1000C00043020008430200084302000843020008FC
:1000D00043020008430200084302000843020008EC
:1000E00043020008351900084302000843020008D3
:1000F00043020008430200084302000843020008CC
:1001000043020008430200084302000843020008BB
:1001100043020008430200084302000843020008AB
:10012000430200084302000843020008430200089B
:100130004302000800000000000000004302000825
:10014000430200084302000843020008430200087B
:10015000430200084302000843020008430200086B
:10016000430200084302000843020008430200085B
:1001700043020008430200080000000000000000E5
:10018000430200084302000800F002F800F03CF8C7
:100190000AA090E8000C82448344AAF10107DA45E2
:1001A00001D100F031F8AFF2090EBAE80F0013F0F8
:1001B000010F18BFFB1A43F001031847641A00002F
:1001C000841A0000103A24BF78C878C1FAD85207C0
:1001D00024BF30C830C144BF04680C6070470000C1
:1001E0000023002400250026103A28BF78C1FBD840
:1001F000520728BF30C148BF0B6070471FB501F0E0
:10020000FDFC1FBD10B510BD00F0CFF81146FFF783
:10021000F5FF01F0C7FC00F0EDF803B4FFF7F2FFC3
:1002200003BC00F0F7F80000094880470948004780
:10023000FEE7FEE7FEE7FEE7FEE7FEE7FEE7FEE796
:10024000FEE7FEE704480549054A064B70470000F3
:10025000891A000889010008F0000020F00600203B
:10026000F0020020F002002053EA020C00F0698046
:100270002DE9F04B4FF00006002B1FBFB3FA83F5BA
:1002800003FA05F424FA05F65E4012BF1643B2FAEB
:1002900082F502FA05F4C5F120051EBF22FA05FC1D
:1002A00044EA0C04203556EA044C4FEA144418BFC3
:1002B000641C4FF000084FF00009904271EB030CF2
:1002C00039D3002919BFB1FA81F701FA07F6B0FA5C
:1002D00080F700FA07F6C7F120071EBF20FA07FCD7
:1002E00046EA0C062037B6FBF4FCA7EB0507103FE7
:1002F00007F01F0BCBF120060CFA0BFB2CFA06F6CD
:1003000044BFB3460026202FA4BF5E464FF0000B2B
:100310005BEA060C08BF4FF0010B19EB0B09ABFBB6
:10032000027C48EB0608C01B06FB02CC0BFB03CC8F
:1003300071EB0C01C1E70B46024641464846BDE859
:10034000F08B13B54FF000004FF00001AFF30080C9
:10035000BDE81C4070474FF0000200B513469446BC
:100360009646203922BFA0E80C50A0E80C50B1F10D
:100370002001BFF4F7AF090728BFA0E80C5048BF21
:100380000CC05DF804EB890028BF40F8042B08BFBF
:10039000704748BF20F8022B11F0804F18BF00F8BB
:1003A000012B7047704770477047754600F02CF876
:1003B000AE4605006946534620F00700854618B052
:1003C00020B5FFF73FFFBDE820404FF000064FF09B
:1003D00000074FF000084FF0000B21F00701AC467A
:1003E000ACE8C009ACE8C009ACE8C009ACE8C00999
:1003F0008D46704710B50446AFF300802046BDE837
:100400001040FFF70ABF0000004870478C00002032
:100410007047000001491820ABBEFEE7260002002D
:1004200000BFFEE7704700BFFEE710B5024692F836
:100430002030012B01D0022B06D1106840690843FF
:1004400014686061002010BD506A40F48020506242
:100450000120F8E7F0B504460D461E4694F82070DA
:1004600020688368A86800B900E000BF012F01D0B0
:10047000022F7CD103F0806030B903F0006018B91E
:1004800003F08050002873D0C3F30161022905D91D
:10049000606A40F4000060620120F0BD01208840E5
:1004A0003060A86860B9B5F800C0E86840EA4C5C04
:1004B000206800F5C07000EB0110C0F800C00FE02C
:1004C000D5E901C040EACC00D5F80CC040EA0C00E8
:1004D000D4F800C00CF5C07C0CEB011CCCF800007B
:1004E000D5F810C0206800F5C07000EB0110C0F80E
:1004F00004C0287D01280ED1206800F5C07000EBF3
:100500000110406840F4807C206800F5C07000EB6A
:100510000110C0F804C0D079000692F806C040EA85
:100520000C4092F805C040EA0C2C10794CEA000C03
:10053000206800F5C07000EB0110C0F80CC0D07846
:10054000000692F802C040EA0C4092F801C040EA6E
:100550000C2092F800C040EA0C00D4F800C00CF562
:10056000C07C0CEB011CCCF80800206801E016E010
:100570000FE000F5C07000EB0110006840F0010CC6
:10058000206800F5C07000EB0110C0F800C000202A
:1005900083E7606A40F40010606201207DE7606AD2
:1005A00040F480206062012077E70000F0B5044647
:1005B0000A46216894F82050012D01D0022D7ED1E9
:1005C000424901F50071086840F0010008600868C0
:1005D00020F47C5008600868566A40EA06200860EB
:1005E000107D00F01F06012000FA06F3C869984349
:1005F000C861A1F50071D069C8B9D1F80C0298435F
:10060000C1F80C02908880B2968940EA064601F54E
:100610001070576940F83760108880B2168940EA38
:10062000064601F51070576900EBC7004660D069B7
:10063000012819D1D1F80C021843C1F80C02908896
:1006400080B2168840EA064601F51070576940F8F6
:100650003760908980B2168940EA064601F510702D
:10066000576900EBC7004660906928B9D1F80402C9
:100670009843C1F8040204E0D1F804021843C1F819
:100680000402106928B9D1F814029843C1F8140281
:1006900004E0D1F814021843C1F81402106A0128CA
:1006A00004D1D1F81C021843C1F81C02D1F8000291
:1006B00020F00100C1F800020020F0BDFFE7606AF1
:1006C00040F4802060620120F7E7000000640040F1
:1006D0000146002091F82020012A01D0022A11D1E0
:1006E0000B689B6803F0806303B1401C0B689B6838
:1006F00003F0006303B1401C0B689B6803F0805358
:1007000003B1401C704770B504460CB9012070BDA0
:1007100094F8200010B9204600F0B0F82068006876
:1007200040F001002168086000F030FA05460DE055
:1007300000F02CFA401B0A2808D9606A40F4003007
:100740006062052084F820000120E0E7206840680E
:1007500000F001000028EBD02068006820F00200C3
:100760002168086000F012FA05460DE000F00EFA6C
:10077000401B0A2808D9606A40F4003060620520F6
:1007800084F820000120C2E72068406800F00200E1
:100790000028EBD1207E012806D12068006840F0B7
:1007A00080002168086005E02068006820F0800073
:1007B00021680860607E012806D12068006840F04A
:1007C00040002168086005E02068006820F04000D3
:1007D00021680860A07E012806D12068006840F0EA
:1007E00020002168086005E02068006820F02000F3
:1007F00021680860E07E012806D12068006820F0AA
:1008000010002168086005E02068006840F01000D2
:1008100021680860207F012806D12068006840F028
:1008200008002168086005E02068006820F00800E2
:1008300021680860607F012806D12068006840F0C8
:1008400004002168086005E02068006820F00400CA
:1008500021680860D4E902010843216908436169FD
:1008600008436168491E08432168C861002060622E
:10087000012084F82000002049E7000010B586B070
:100880000446142101A8FFF766FD1B492068884231
:1008900030D100BF002000901848006840F0007080
:1008A000164908600846006800F00070009000BF1C
:1008B00000BF00BF0020009010481038006840F0D2
:1008C00002000E49103908600846006800F0020076
:1008D000009000BF00BF4FF44070019002200290D2
:1008E00000200390032004900920059001A90448EA
:1008F00000F04CF806B010BD0064004040380240E3
:100900000004024070B5044694F82000012822D16A
:10091000022084F820002068006820F0010021688F
:10092000086000F033F905460DE000F02FF9401B98
:100930000A2808D9606A40F400306062052084F813
:100940002000012070BD2068406800F001000028F0
:10095000EBD16062F6E7606A40F40020606201203B
:10096000F0E7000070B5044600F010F90646254691
:10097000681C10B104480078054400BF00F006F977
:10098000801BA842FAD370BD0C000020F8B50246C7
:100990000B460025002400200021D6E0012606FA9F
:1009A00001F51E6806EA0504AC4274D11E7906F012
:1009B0000306012E04D01E7906F00306022E13D181
:1009C00090684F000326BE40B0434F00DE68BE4033
:1009D00030439060506801268E40B0431E79C6F3C4
:1009E00000168E40304350601E7906F00306032E39
:1009F00009D0D0684F000326BE40B0434F009E6828
:100A0000BE403043D0601E7906F00306022E13D19B
:100A1000CF0802F1200656F827004E07F70E0F26E2
:100A2000BE40B0434F07FF0E1E69BE403043CF08A3
:100A300002F1200646F8270010684F000326BE404A
:100A4000B0431E7906F003064F00BE4030431060ED
:100A50005E6806F44036002E76D000BF0026009671
:100A60003C4E366846F480463A4F3E603E46366815
:100A700006F48046009600BF00BF374E8F0856F838
:100A800027008E07370F0F26BE40B043334EB242C9
:100A900002D1002624E057E0314EB24201D10126B6
:100AA0001EE0304EB24201D1022619E02E4EB24273
:100AB00001D1032614E02D4EB24201D104260FE0ED
:100AC0002B4EB24201D105260AE02A4EB24201D194
:100AD000062605E0284EB24201D1072600E008268E
:100AE0008F073F0FBE4030431B4E8F0846F827004C
:100AF000224E3068A0435E6806F4801606B120439B
:100B00001E4E3060361D3068A0435E6806F4001645
:100B100006B12043194E361D3060184E361F30681E
:100B2000A0435E6806F4003606B12043134E361F1C
:100B30003060361F3068A0435E6806F4803606B128
:100B400020430E4E083E3060491C1029FFF426AFAA
:100B5000F8BD00004438024008380140000002405F
:100B60000004024000080240000C02400010024055
:100B70000014024000180240001C0240083C0140E2
:100B800001480068000C7047002004E0014800683C
:100B900070470000040000200348006803490978FA
:100BA0000844014908607047040000200C00002040
:100BB00010B50A48006840F400700849086008460B
:100BC000006840F480600860032000F055F90F20B1
:100BD00000F006F800F0DEF8002010BD003C0240F6
:100BE00030B591B0054600201090012004900020FF
:100BF0000A904FF4803005905F48039004A800F0FD
:100C000039FB04462CB902200090684600F048F9F0
:100C100004469CB90120594908605948594908605F
:100C2000002048606321574881600921C16000218C
:100C300001614161816100F0DBFD044684BB00BFBE
:100C4000CA2050490968486253204E4909684862E1
:100C500000BF4C480068806820F4807049490968EA
:100C6000886048480068C06800F0800060F4C07088
:100C700044490968C860002010900AE04249109871
:100C800009683022B1FBF2F2411C1091824200D17E
:100C900001243C480068C06800F001000028EDD045
:100CA0007CBB012037490968C86136480068806804
:100CB00040F4807033490968886032480068806871
:100CC00040F480502F49096888603048006840F43B
:100CD00000302E4908602D480830006840F400308C
:100CE0002A490831086027480068C06800F04000C1
:100CF00038B94FF0FF3023490968C86000201090D0
:100D00000BE011E02049109809683022B1FBF2F2A3
:100D1000411C1091824200D101241A480068C06829
:100D200000F040000028EDD004BB00201549096800
:100D3000486014490968086012480068C06820F0DB
:100D4000800010490968C86000BFFF200D4909688C
:100D5000486200BF292000F041F8102D07D2002280
:100D60002946292000F04AF80948056000E00124DE
:100D7000204611B030BD0000000308003C0E474281
:100D8000002800406C00002000000020003C0140D2
:100D90000800002008B500BF002000900E48006841
:100DA00040F480400C4908600846006800F4804028
:100DB000009000BF00BF00BF00200090081F006827
:100DC00040F08050091F08600846006800F080501D
:100DD000009000BF00BF08BD4438024001460846ED
:100DE000002809DB00F01F0301229A4043099B0001
:100DF00003F1E023C3F8002100BF70472DE9F05F45
:100E000080460D461646002700F072FE074639461A
:100E10002A46334601F00700C0F1070ABAF1040F71
:100E200002D94FF0040A01E0C0F1070AD14600F1EF
:100E3000040ABAF1070F02D24FF0000A01E0A0F154
:100E4000030AD4464FF0010A0AFA09FAAAF1010A84
:100E50000AEA020A0AFA0CFA4FF0010B0BFA0CFB31
:100E6000ABF1010B0BEA030B4AEA0B0421464046A7
:100E700000F046FEBDE8F09F00BF00F00702064B01
:100E800019684FF6FF031940044B0B4343EA022154
:100E9000014B196000BF70470CED00E00000FA053F
:100EA000F8B5044600250026207800F0010020B99E
:100EB000207800F0040004282FD100205B498866C8
:100EC000FFF764FE054606E0FFF760FE401B0228C0
:100ED00001D90320F8BD56480068C0F3C06000285F
:100EE000F2D160688101207A41EA00705049843172
:100EF000086001204D498866FFF748FE054606E078
:100F0000FFF744FE401B022801D90320E2E74848CE
:100F10000068C0F3C0600028F2D0207800F0020022
:100F200002287DD100BF0020009041484030006879
:100F300040F080503E49403108600846006800F0AB
:100F40008050009000BF00BF3A48006840F48070B5
:100F500038490860FFF71AFE054606E0FFF716FE5F
:100F6000401B022801D90320B4E73248006800F48E
:100F700080700028F2D02E487030006800F440766F
:100F80004EB3A08900F44070B04224D0284870309D
:100F9000006820F44076012027490860002008609E
:100FA000234870300660006800F0010098B1FFF738
:100FB000EDFD054608E0FFF7E9FD401B41F28831F1
:100FC000884201D9032085E7194870300068C0F3D2
:100FD00040000028EFD000BFA08900F44070B0F5B9
:100FE000407F0CD112480830006820F4F810134AF2
:100FF000E168114008430E490831086007E00C48D9
:101000000830006820F4F8100949083108600848E1
:1010100070300068A189C1F30B010843044900E066
:1010200002E07031086000BF002053E70000474233
:101030000038024000700040400E4742FFFCFF0FA6
:1010400070B504460D460CB9012070BD58480068C3
:1010500000F00700A84209D255490D700846006803
:1010600000F00700A84201D00120EEE7207800F050
:10107000020002281DD1207800F00400042805D1C8
:101080004C48006840F4E0504A490860207800F07D
:101090000800082805D14748006840F460404549E9
:1010A00008604448006820F0F000A1680843414906
:1010B0000860207800F00100A8B36068012807D11B
:1010C0003C4808380068C0F34040B8B90120BCE78C
:1010D0006068022802D06068032807D135480838C4
:1010E0000068C0F3406048B90120AEE731480838D5
:1010F0000068C0F3400008B90120A6E72D48006849
:1011000020F00300616808432A490860FFF73EFDAC
:10111000064609E0FFF73AFD801B41F2883188421C
:1011200002D9032091E707E02248006800F00C0094
:101130006168B0EB810FEDD11D48006800F0070039
:10114000A84209D91A490D700846006800F0070046
:10115000A84201D0012078E7207800F0040004289C
:1011600007D11448006820F4E050E16808431149B1
:101170000860207800F00800082808D10D480068B1
:1011800020F46040216940EAC1000A49086000F08B
:1011900019F808490968C1F30311074A515CC840AE
:1011A0000649086006480068FFF71AFD00204CE772
:1011B000003C024008380240061C000800000020E5
:1011C000080000202DE9F047002400250026A14654
:1011D0002548006800F00C0020B1042805D008283C
:1011E0003AD105E0DFF8849039E0DFF8849036E00A
:1011F0001D48001F006800F03F041B48001F0068E6
:1012000000F4800078B11A481749091F0968C1F332
:101210008811A0FB01700146224600233846FFF7E3
:1012200023F805460EE011480F49091F0968C1F36C
:101230008811A0FB01700146224600233846FFF7C3
:1012400013F805460848001F0068C0F30140401C21
:101250004600B5FBF6F902E0DFF8109000BF00BFD2
:101260004846BDE8F0870000083802400024F4003A
:1012700000127A00F8B504460CB90120F8BD2078B8
:1012800000F00100002874D0F948006800F00C005C
:1012900004280DD0F648006800F00C00082813D18F
:1012A000F348001F006800F48000B0F5800F0BD1F8
:1012B000EF4808380068C0F34040002859D0606803
:1012C000002856D10120D9E700BF6068B0F5803F03
:1012D00008D1E7480838006840F48030E44908390C
:1012E00008601EE06068B0F5A02F0DD1E048083816
:1012F000006840F48020DE4908390860084600682C
:1013000040F4803008600CE0D9480838006820F4C8
:101310008030D749083908600846006820F48020EA
:10132000086000BF606890B1FFF730FC054606E03A
:10133000FFF72CFC401B642801D903209EE7CC4812
:1013400008380068C0F340400028F1D011E0FFF7F2
:101350001DFC054606E0FFF719FC401B642801D977
:1013600003208BE7C24808380068C0F340400028DB
:10137000F1D1207800F0020002285FD1BC4800685B
:1013800000F00C0058B1BA48006800F00C000828C2
:101390001CD1B748001F006800F48000B0B9B44801
:1013A00008380068C0F3400020B1E068012801D08F
:1013B000012063E7AE480838006820F0F800216992
:1013C00040EAC100AA490839086037E0E06800B384
:1013D0000120A8490860FFF7D9FB054606E0FFF7A2
:1013E000D5FB401B022801D9032047E7A048083855
:1013F0000068C0F340000028F1D09D48083800681C
:1014000020F0F800216940EAC100994908390860D4
:1014100014E0002097490860FFF7B8FB054606E096
:10142000FFF7B4FB401B022801D9032026E79048B0
:1014300008380068C0F340000028F1D1207800F09F
:10144000080008282CD16069A8B101208A490860E9
:10145000FFF79CFB054606E0FFF798FB401B0228C0
:1014600001D903200AE782486C300068C0F34000CD
:101470000028F1D014E000207F490860FFF786FBC8
:10148000054606E0FFF782FB401B022801D9032036
:10149000F4E677486C300068C0F340000028F1D1D2
:1014A000207800F00400042870D1002770483830FC
:1014B000006800F0805090B900BF002000906C4898
:1014C0003830006840F0805069493831086008467B
:1014D000006800F08050009000BF00BF01276748FF
:1014E000006800F48070B0B96448006840F480700F
:1014F00062490860FFF74AFB054606E0FFF746FB36
:10150000401B022801D90320B8E65C48006800F4BB
:1015100080700028F2D000BFA068012808D154488C
:101520006830006840F001005149683108601DE0F2
:10153000A06805280DD14E486830006840F00400CE
:101540004B49683108600846006840F001000860B7
:101550000CE047486830006820F0010044496831D9
:1015600008600846006820F00400086000BFA0681A
:10157000A8B1FFF70BFB054609E0FFF707FB401B8F
:1015800041F28831884202D9032077E626E03848C4
:1015900068300068C0F340000028EED013E0FFF789
:1015A000F5FA054608E0FFF7F1FA401B41F28831F1
:1015B000884201D9032061E62D4868300068C0F3F5
:1015C00040000028EFD1012F07D1294838300068AA
:1015D00020F0805026493831086000BFA0690028FB
:1015E00045D02348006800F00C0008285DD0A069B1
:1015F000022845D100201F490866FFF7C7FA0546B3
:1016000006E0FFF7C3FA401B022801D9032035E6A4
:10161000174808380068C0F340600028F1D1D4E9C9
:1016200007010843616A40EA81110122A06AC2EB06
:10163000500041EA00412C20005D41EA00600C4965
:10164000091F086001200B490866FFF79FFA05464D
:1016500006E0FFF79BFA401B022801D903200DE6A4
:10166000034808380068C0F340600028F1D049E022
:101670000838024000004742800E47420070004098
:10168000002021490866FFF781FA054606E0FFF7CA
:101690007DFA401B022801D90320EFE51B480068B2
:1016A000C0F340600028F2D12CE0A069012800D1ED
:1016B000E4E51648001D0668A069012820D006F45C
:1016C0008001E06981421BD106F03F01206A81421E
:1016D00016D147F6C0703040616AB0EB811F0FD160
:1016E00006F440310122A06AC2EB5000B1EB004F7A
:1016F00006D106F070612C20005DB1EB006F01D0C7
:101700000120BBE50020B9E5000047420038024057
:101710007047000038B5044600200090FFF73CFAFF
:1017200000BFCA202168486253202168486200BF78
:101730004FF0FF302168C8600AE01149009809683D
:101740003022B1FBF2F2411C0091824200D105E04F
:101750002068C06800F040000028EED000BF0020E4
:1017600021684860216808602068C06820F0800017
:101770002168C86000BFFF202168486200BF38BDF3
:101780000000002010B5044620688068C0F30030D7
:1017900078B12068C068C0F3002050B12046FFF740
:1017A000B9FF2068C06800F0800060F4C070216854
:1017B000C86020688068C0F3403078B12068C06895
:1017C000C0F3402050B12046FFF7A2FF2068C06858
:1017D00000F0800060F420702168C8604FF4003091
:1017E000024908600120607710BD0000143C0140F0
:1017F00070B5044601250CB9012070BD607F20B989
:1018000000202077204600F045F80220607700BFD6
:10181000CA202168486253202168486200BF2046E0
:1018200000F090F80546EDB9206880681849084036
:1018300021688860216960680843616908432168FC
:1018400089680843216888602168E0680861206829
:101850000169208941EA004021680861204600F0C2
:1018600096F805466DB92068006C20F48020216848
:1018700008642068006CA16908432168086401209D
:10188000607700BFFF202168486200BF2846B4E7A8
:10189000BFFF8FFF704770B5044600252068C06801
:1018A00020F0A0002168C860FFF770F9054607E046
:1018B000FFF76CF9401BB0F57A7F01D9032070BDAA
:1018C0002068C06800F020000028F1D00020F6E772
:1018D00000BFFEE710B513481349086004204860B4
:1018E000002111488160C1604FF4702101614FF403
:1018F0004011416100210176012141768176C17656
:10190000002101774177FEF7FEFE08B1FEF78BFD5F
:1019100000F00AF90448FEF7F5FF02210248FEF73D
:1019200084FD10BD006400401000002000BFFEE7F1
:101930007047704710B50248FFF724FF10BD000044
:101940006C00002070B50446002600252068C068A1
:1019500000F04000C8B92068C06840F080002168ED
:10196000C860FFF713F9064608E0FFF70FF9801B80
:10197000B0F57A7F02D90420607701252068C0681D
:1019800000F0400008B9012DEFD1284670BD70B5B8
:10199000044600252068C06820F080002168C860E7
:1019A0002068806800F0200030B92046FFF773FF00
:1019B00010B1042060770125284670BD704710B52E
:1019C000FFF7EAF810BD000000B593B000BF00209B
:1019D00001902A48006840F0805028490860084675
:1019E000006800F08050019000BF00BF00BF0020E1
:1019F00001902348006840F480402149086008466F
:101A0000006800F48040019000BF00BF01200290F8
:101A100000040390022008904105099108210A91D1
:101A20004FF4A8710B9102210C9107210D9102A88E
:101A3000FFF720FC08B1FEF7F6FC0F200E90022005
:101A40000F90002010904FF4A05011904FF4805050
:101A5000129005210EA8FFF7F3FA08B1FEF7E3FC98
:101A6000FFF78EF841F20101884205D10548006870
:101A700040F480700349086013B000BD4038024054
:101A800000700040003C02401448006840F47000C0
:101A9000124908601248006840F0010010490860CF
:101AA00000200F49083108600D4800680D490840C2
:101AB0000B4908600C48091D0860081F006820F4E5
:101AC0008020091F0860002005490C3108604FF094
:101AD00000600249803908607047000088ED00E02E
:101AE00000380240FFFFF6FE1030002400BFFEE782
:101AF00002480068C0F30220704700000CED00E0CF
:101B000010B5002804DB0A07130E054A135406E03B
:101B10000A07140E034A00F00F031B1FD45410BD14
:101B200000E400E018ED00E000B58BB0282101A82A
:101B3000FEF711FC01200990002007900120089079
:101B400000200590029001900490039006900A9066
:101B500001A90348FEF72AFD01200BB000BD0000DB
:101B6000100000202DE9F04104460D4616460027DE
:101B70000A480460066100200849886003E00848BC
:101B8000FEF7A6FD0746002FF9D001232A46034998
:101B90000348FEF75FFC0020BDE8F081380000201C
:101BA000100000201CB5FFF703F8FFF70DFF0E48EB
:101BB0000E4908600846FEF761FEFFF78BFE002025
:101BC0000B49C860886008750DE00AA103C9CDE91A
:101BD00000010822694640F20460FFF7C3FFC820F5
:101BE000FEF7C0FE00BFF0E70064004010000020D8
:101BF0003800002028001400000000004FF0407062
:101C0000E1EE100A70470000000000000000010231
:101C10000304060708090000000001020304000095
:101C2000401C00080000002010000000C401000853
:101C3000501C000810000020E0060000E001000831
:101C40000024F4000000000010000000010000006B
:040000050800018965
:00000001FF
