:020000040800F2
:1000000038070020290200083102000833020008E6
:10001000350200083702000839020008000000001D
:100020000000000000000000000000003B0200088B
:100030003D020008000000003F02000841020008E5
:10004000430200084302000843020008430200087C
:10005000430200084302000843020008430200086C
:10006000430200084302000843020008430200085C
:10007000430200084302000843020008430200084C
:10008000430200084302000843020008430200083C
:10009000430200084302000843020008430200082C
:1000A000430200084302000843020008430200081C
:1000B000430200084302000843020008430200080C
:1000C00043020008430200084302000843020008FC
:1000D0004302000843020008C50600084302000866
:1000E00043020008430200084302000843020008DC
:1000F00043020008430200084302000843020008CC
:1001000043020008430200084302000843020008BB
:1001100043020008430200084302000843020008AB
:10012000430200084302000843020008430200089B
:10013000430200084302000843020008430200088B
:10014000430200084302000843020008430200087B
:10015000430200084302000843020008430200086B
:10016000430200084302000843020008430200085B
:10017000430200084302000843020008430200084B
:10018000430200084302000800F002F800F03CF8C7
:100190000AA090E8000C82448344AAF10107DA45E2
:1001A00001D100F031F8AFF2090EBAE80F0013F0F8
:1001B000010F18BFFB1A43F001031847BC060000EB
:1001C000DC060000103A24BF78C878C1FAD852077C
:1001D00024BF30C830C144BF04680C6070470000C1
:1001E0000023002400250026103A28BF78C1FBD840
:1001F000520728BF30C148BF0B6070471FB500F0E1
:1002000035FB1FBD10B510BD00F033F81146FFF7E8
:10021000F5FF00F0EDFA00F051F803B4FFF7F2FF3C
:1002200003BC00F0C2FA00000948804709480047B3
:10023000FEE7FEE7FEE7FEE7FEE7FEE7FEE7FEE796
:10024000FEE7FEE704480549054A064B70470000F3
:100250009D040008890100083801002038070020AB
:1002600038030020380300207047704770477047FC
:100270007047754600F02CF8AE46050069465346B7
:1002800020F00700854618B020B5FFF7DBFFBDE87A
:1002900020404FF000064FF000074FF000084FF0ED
:1002A000000B21F00701AC46ACE8C009ACE8C0097E
:1002B000ACE8C009ACE8C0098D46704710B50446EB
:1002C000AFF300802046BDE81040FFF7A6BF000056
:1002D00000487047D8000020F0B50A4600210023EE
:1002E000002400BF3DE0012505FA01F3156805EA89
:1002F00003049C4234D105684F000326BE40B54339
:10030000056015794E00B5400668354305601579DE
:10031000012D02D01579022D16D185684F000326D4
:10032000BE40B543856055794E00B540866835437B
:100330008560456801268E40B543456045689679DD
:100340008E40B6B235434560C5684F000326BE40B7
:10035000B543C560D5794E00B540C6683543C56024
:10036000491C1029BFD3F0BD4183704701837047FA
:1003700029B1064A12680243044B1A6004E0034A9A
:1003800012688243014B1A60704700003038024007
:1003900029B1064A12680243044B1A6004E0034A7A
:1003A00012688243014B1A607047000040380240D7
:1003B0000CB50020019000903448006840F4803073
:1003C0003249086000BF3148006800F400300090F6
:1003D0000198401C0190009818B90198B0F5A04F01
:1003E000F1D12A48006800F4003010B101200090DB
:1003F00001E0002000900098012846D123484030B9
:10040000006840F080502149403108602048006871
:1004100040F440401E4908601C48083000681B49F1
:10042000083108600846006840F40040086008464B
:10043000006840F4A05008601648091F0860081FB3
:10044000006840F08070091F086000BF0F48006816
:1004500000F000700028F9D040F205700E490860E5
:100460000A480830006820F0030008490831086095
:100470000846006840F00200086000BF03480830EA
:10048000006800F00C000828F8D10CBD00380240CC
:100490000070004019544007003C024010B5154858
:1004A000006840F47000134908601348006840F089
:1004B00001001149086000200F49083108600E480A
:1004C00000680E4908400C4908600D48091D086085
:1004D000081F006820F48020091F086000200649DA
:1004E0000C310860FFF764FF4FF00060014980396C
:1004F000086010BD88ED00E000380240FFFFF6FE06
:1005000010300024CA430282704721B1028842F0B1
:100510000102028004E002884FF6FE731A40028056
:10052000704730B504460D462946204600F00BF8CA
:10053000208940F00700208130BD01894FF6F87214
:100540001140018170470A46002101894FF68F73DF
:10055000194011430181704702894FF67F731A4099
:10056000028102890A430281704782884FF68F73A5
:100570001A40828082880A43828070470022028863
:10058000184B98420ED0184B98420BD0B0F1804FC8
:1005900008D0164B984205D0154B984202D0154B07
:1005A000984204D14FF68F731A404B881A43124B6E
:1005B000984207D0114B984204D04FF6FF431A409F
:1005C0000B891A4302804B68C3620B880385054B75
:1005D000984202D0044B984201D18B7A03860123C2
:1005E0008382704700000140000401400004004085
:1005F00000080040000C00400010004000140040C3
:1006000010B500F00FF800F037F810BD10B501215B
:100610000348FFF77AFF01218807FFF776FF10BD37
:10062000000400400EB501210846FFF7B1FE4FF06F
:100630008040FFF782FF0020ADF80800ADF802000F
:100640000C4801905320ADF8000000208DF80A00FE
:1006500069464FF08040FFF791FF01218807FFF7BF
:1006600051FF8021C805FFF777FF20214806FFF7DB
:100670007CFF0EBD3F420F000EB501210220FFF7A7
:1006800087FE10210D48FFF74CFF80210B48FFF734
:1006900063FF0020ADF80800ADF8020008480190A3
:1006A0000020ADF800008DF80A0069460348FFF706
:1006B00065FF01210148FFF725FF0EBD0004004042
:1006C00040420F0010B540F225511D4800F03EF8A1
:1006D00010B31B4800F064F8C4B21A48008800F454
:1006E0000040C8B91748008800F4804060B10A2C67
:1006F00003D000201349088020E01248008840F40D
:1007000000401049088019E00D2C06D10D480088E2
:1007100040F480400B49088010E00A480088C0F38C
:100720000D0009490C5407480088401C0549088001
:1007300008460088C72801DD0020088010BD0000A1
:10074000004400400C0000201000002070B502465C
:10075000002400230025002040F66A16B14200D193
:1007600000BFC1F3421501F01F03012606FA03F38F
:10077000012D02D19689334006E0022D02D1168A5E
:10078000334001E0968A33400C12012606FA04F445
:100790001688344013B10CB1012000E0002070BD78
:1007A00001468888C0F30800704700BF704700000A
:1007B0000EB501210420FFF7EBFD5320019000202E
:1007C000ADF80000ADF80800ADF802006946024837
:1007D000FFF7D4FE0EBD000000080040014800688D
:1007E00070470000240400404FF08040406A70478A
:1007F0001CB5FFF7DDFFFFF703FFFFF707FF012041
:100800008DF8040000208DF80600012000900320E0
:100810008DF8050002208DF8070001210846FFF73A
:10082000A7FD69460E48FFF757FD17E0FFF7DCFF0D
:100830000C490860FFF7D2FF0B490880088800EBDD
:10084000D0714910A0EB410121B901210448FFF703
:100850008DFD03E001210248FFF786FDE6E7000079
:100860000000024000000020040000204FF0407013
:10087000E1EE100A70470000980800080000002010
:1008800010000000C4010008A808000810000020A3
:1008900028070000E0010008000000000000000040
:0808A000000000000000000050
:040000050800018965
:00000001FF
