:020000040800F2
:1000000080C70020750200087D0200087F020008FA
:100010008102000883020008850200080000000039
:10002000000000000000000000000000870200083F
:1000300089020008000000008B0200088D02000801
:100040008F0200088F0200088F0200088F0200084C
:100050008F0200088F0200088F0200088F0200083C
:100060008F0200088F0200088F0200088F0200082C
:100070008F0200088F0200088F0200088F0200081C
:100080008F0200088F0200088F0200088F0200080C
:100090008F0200088F0200088F0200088F020008FC
:1000A0008F0200088F0200088F0200088F020008EC
:1000B0008F0200088F0200088F0200088F020008DC
:1000C0008F0200088F0200088F0200088F020008CC
:1000D0008F0200088F0200088F0200088F020008BC
:1000E0009D1800088F0200088F0200088F02000888
:1000F0008F0200088F0200088F0200088F0200089C
:100100008F0200088F020008192200088F020008E1
:100110008F0200088F0200088F0200088F0200087B
:100120008F0200088F0200088F0200088F0200086B
:100130008F0200088F0200088F0200088F0200085B
:100140008F0200088F0200088F0200088F0200084B
:100150008F0200088F0200088F0200088F0200083B
:100160008F0200088F0200088F0200088F0200082B
:100170008F0200088F0200088F0200088F0200081B
:100180008F0200088F02000800F002F800F063F808
:100190000AA090E8000C82448344AAF10107DA45E2
:1001A00001D100F058F8AFF2090EBAE80F0013F0D1
:1001B000010F18BFFB1A43F0010318475CE9000068
:1001C0007CE90000103A24BF78C878C1FAD85207F9
:1001D00024BF30C830C144BF04680C6070470000C1
:1001E0000023002400250026103A28BF78C1FBD840
:1001F000520728BF30C148BF0B607047662909F01D
:10020000C78203681B0A28BF41F08001642900F0FF
:10021000C380752900F0C080782900F05F81E4294F
:1002200000F0F680F52900F0F380F82900F06481F1
:10023000732900F02886002070471FB509F0A3FA43
:1002400000F038FE04000020002108F0C3FEE0604A
:100250001FBD10B510BD00F0EBFE1146FFF7EDFF1E
:1002600007F0D4FB00F009FF03B4FFF7F2FF03BC73
:1002700002F02FFA0948804709480047FEE7FEE7E9
:10028000FEE7FEE7FEE7FEE7FEE7FEE7FEE7FEE746
:1002900004480549054A064B70470000BD21000887
:1002A0008901000880C1002080C7002080C3002091
:1002B00080C30020704700000FB4044910B503AAA2
:1002C000029800F0E5FD10BC5DF814FBB8000020BA
:1002D0000FB41CB5074B06AA7B44694600900598ED
:1002E00000F0A7FD0020694600F0B6FD1CBC5DF8DB
:1002F00014FB00007D0B000070B5044685690068A2
:10030000C10601D5302600E02026C00707D070BD09
:10031000D4E9012130469047206A401C20626D1EBE
:10032000F6D570BD70B5044685690078C00707D161
:1003300070BDD4E9012120209047206A401C206232
:100340006D1EF6D570BD70B50C460546012A05D068
:100350002878800600D5EA69002302E0012305E041
:100360005B1C934202D2E05C0028F9D1A869E61830
:10037000C01AA861286A184428622846FFF7BCFF03
:1003800004E0D5E9012114F8010B9047B442F8D3F9
:100390002846FFF7C7FF70BD2DE9F041064600244F
:1003A00010687529314616A510D0AFF300800028DB
:1003B00002DA404213A507E031688A0701D512A589
:1003C00002E0490704D511A5012401E0AFF3008044
:1003D00000210A2206F1240709E0B0FBF2FCB0FB81
:1003E000F2F302FB1C00303078541846491C0028F8
:1003F000F3D123462A463046BDE8F04100F0ACBABE
:10040000000000002D0000002B0000002000000074
:100410002DE9F0418046D21D22F007020025D2E9E5
:100420000002F52915A614D0011E72F1000106DAAA
:100430000023D0EB030063EB020211A608E0D8F81A
:1004400000108B0701D50FA602E0490701D50EA6C3
:1004500001251146002408F1240704E000F037FAD2
:1004600030323A55641C50EA0102F7D12B4632462D
:1004700021464046BDE8F04100F06EBA00000000A1
:100480002D0000002B00000020000000F0B40D46FD
:100490000188090502D51B4C7C4402E0194C7C44C0
:1004A0000E34002100F1240608E002F00F071209C3
:1004B000E75D42EA03721B097754491C52EA0307BD
:1004C000F3D1224604780023240704D5702D02D0EE
:1004D00009B102231132F0BC00F03EBA70B50446F7
:1004E0000D4621461068AFF300800246294620469B
:1004F000BDE870400023C9E7D21D22F00703D3E90D
:100500000023C3E71CE400002DE9F05F89460446A0
:100510004FF0000ADFF874B1FB44C0F820A0204679
:10052000E1688847002874D0252806D0D4E9012145
:100530009047206A401C2062F1E700265F46204673
:10054000E16888472028054607DB312D05D2781958
:1005500010F8200C08B10643F1E7B00701D526F0EA
:100560000406C4F81CA00027C4F818A02A2D09D03E
:10057000284602F0A7F838B304EB8708303DC8F8E6
:10058000185019E059F8041B204604EB87029161CA
:10059000E1688847012F054618D1E069002820DA74
:1005A00026F020061DE0D8F8180000EB800005EBCF
:1005B00040003038C8F818002046E16888470546F2
:1005C00002F080F80028EED1012F0AD02E2D08D19C
:1005D0002046E16888477F1C0546022F46F020062A
:1005E000C4DBA069002803DA404246F00106A0619E
:1005F000F00701D026F010066C2D0BD0682D09D025
:100600004C2D39D06A2D35D0742D35D07A2D33D07C
:1006100016E038E0E1682F4620468847B842054694
:1006200009D16C2F26D04FF48060E1680643204644
:100630008847054604E06C2F1AD04FF480700643BB
:100640000DB3A5F14100192802D8203546F4006603
:100650004A462946204626604E46FFF7CFFD80B128
:1006600001280BD0F61D26F0070000F1080956E717
:100670004020E4E78020D8E70020D6E706F104090F
:100680004DE7284652E7206ABDE8F09FC4E300002A
:1006900040EA0103024630B59B0710D14FF0013408
:1006A00000E008C208C91D1B9D4315EAC41FF8D00D
:1006B00013F0FF0102F8011B0DD01B0AF8E711F837
:1006C000013B002B02F8013B05D011F8013B002B48
:1006D00002F8013BF3D130BD421E12F8013F002B5E
:1006E000FBD111F8013B002B02F8013BF9D1704717
:1006F000032A40F2308010F0030C00F0158011F84E
:10070000013BBCF1020F624498BF11F801CB00F825
:10071000013B38BF11F8013BA2F1040298BF00F879
:1007200001CB38BF00F8013B11F0030300F0258036
:10073000083AC0F0088051F8043B083A51F804CB5D
:10074000A0E80810F5E7121D5CBF51F8043B40F823
:10075000043BAFF30080D20724BF11F8013B11F82E
:1007600001CB48BF11F8012B24BF00F8013B00F872
:1007700001CB48BF00F8012B704710B5203AC0F0FC
:100780000B80B1E81850203AA0E81850B1E8185092
:10079000A0E81850BFF4F5AF5FEA027C24BFB1E8CF
:1007A0001850A0E8185044BF18C918C0BDE8104040
:1007B0005FEA827C24BF51F8043B40F8043B08BF49
:1007C0007047D20728BF31F8023B48BF11F8012B10
:1007D00028BF20F8023B48BF00F8012B70474FF0BC
:1007E00000020429C0F0128010F0030C00F01B80FE
:1007F000CCF1040CBCF1020F18BF00F8012BA8BF0C
:1008000020F8022BA1EB0C0100F00DB85FEAC17CCF
:1008100024BF00F8012B00F8012B48BF00F8012B82
:1008200070474FF0000200B51346944696462039B3
:1008300022BFA0E80C50A0E80C50B1F12001BFF499
:10084000F7AF090728BFA0E80C5048BF0CC05DF8FF
:1008500004EB890028BF40F8042B08BF704748BF4D
:1008600020F8022B11F0804F18BF00F8012B7047C1
:1008700010B5044610F0030F08BF11F0030F40F04D
:1008800015804FF0013E121FC0F20E8051F8043B5C
:10089000A3EB0E0C2CEA030C1CEACE1C08BF40F89C
:1008A000043BF0D0A1F1040102F10402521E08DB66
:1008B00011F8013B002B00F8013BF7D11146FFF77F
:1008C0008EFF204610BD704770477047704730B5A7
:1008D000B0F10A024FEA900E71F100034EEA817EF8
:1008E000B0EB0E0061EB91014FEA101E4EEA017E63
:1008F00010EB0E0041EB11114FEA102E4EEA016E83
:1009000010EB0E0041EB11214FEA104E4EEA014E62
:1009100010EB0E0041EB1141401841F100014FEA8C
:10092000D00040EA41704FEAD10110EB80054FEA58
:10093000810444EA907444EB01046D1944EB04040F
:10094000521BA3414FF0000348BF0A3200D530BD0F
:10095000401C41F1000130BD2DE9F0470D4699469C
:100960009246044600F124080168880604D5E0692F
:1009700021F01001216000E00120A84201DD471BA9
:1009800000E00027A1697A1902EB0900081AA061AA
:100990002078C00602D42046FFF7AEFC002608E00F
:1009A000D4E901211AF806009047206A401C761C01
:1009B00020624E45F4DB2078C0060AD52046FFF7BA
:1009C0009BFC06E0D4E9012130209047206A401CBE
:1009D0002062381EA7F10107F4DC07E0D4E9012109
:1009E00018F805009047206A401C2062281EA5F1D7
:1009F0000105F3DC2046FFF795FC2078000602D5C0
:100A00000220BDE8F0870120FBE770472DE9FF4F8A
:100A10000C461E464FF0FF378BB0D2E90001DDF8DF
:100A200060800A908A46C1F30A5505B93D46002107
:100A300008464FF00000BAF1000F00F4400005DA5C
:100A400000EB80004FF4400101EA50004FEA90595A
:100A5000B9F1010F00DDB9460A9850EA4A000ED0FC
:100A600044F61050A5F2FF3545432F14B8F1000F9E
:100A70001ED07542291E1EDDC9F100021CE0B8F12E
:100A8000010F4FF0000001D0302103E0F24305E0F8
:100A90002154401CB042FBDB30460022002121548F
:100AA0000B99C1F80880C1E900200FB0BDE8F08FB4
:100AB000BD1B6D1CDEE74A4600DA694206A800F05D
:100AC0003DFA06AB93E8070003AB83E80700504606
:100AD0000A9900F01BFB8DE80700A0F500501F38B5
:100AE00000900398002D0ADD42F21F014A46084497
:100AF000002303A90390684600F084FD09E0A0F5F7
:100B000000504A461F38002303A90390684600F0AE
:100B10008EFD8DE807000004000C03D04FF0FF307D
:100B2000410800E01046B8F1000F03D00022009207
:100B300015461EE0751E05D4FFF7C9FE303262551A
:100B40006D1EF9D5B3460122084302D000227F1C56
:100B500004E02078302801D100227F1E002A099766
:100B600084D01DE0112D07DAFFF7B1FE3032625557
:100B70006D1C50EA0102F5D1084302D00098C8B1BB
:100B80000EE00021681E05E0235C625C6354225481
:100B9000401E491C8142F7DBAB46A81B401E099052
:100BA000002004F80B000B98099AC0F80880C0E9EF
:100BB000002B7AE711264FF0000857E72DE9F04F98
:100BC00088460446D21D22F0070191B0D1E9000108
:100BD000CDE90A0101F05EFD02460B98C00F01D07D
:100BE0002D2007E02068810701D52B2002E020217D
:100BF00001EAC000032A099001D0072A05DB034659
:100C00004146204600F05AF90BE12078800601D5D4
:100C1000E06900E00620B8F1650F814606D0B8F122
:100C2000660F18D0B8F1670F70D131E00020B9F12C
:100C3000110F009001DB112301E009F101030AAA61
:100C400001A90CA8FFF7E2FEDDE90C70002609F10E
:100C50000105834647E001204B4600904FF00047D6
:100C60000AAA01A90CA8FFF7D1FEDDE90DB00C9985
:100C70005D46002610B909F101000D18B9EB050019
:100C800003D4C0F1FF3609F10105A5EB09002BE003
:100C9000B9F1010F01DA4FF001090020B9F1110F8C
:100CA0000090484601DD112300E003460AAA01A98D
:100CB0000CA8FFF7ABFEDDE90C704D46002683461D
:100CC000207800070AD4AB4500DA5D4601A8012D63
:100CD00004DD411911F8011C302907D04F4502DA13
:100CE00017F1040F04DA012082460FE06D1EEEE7D3
:100CF000002F02DCED1B3E4403E0781CA84200DD1F
:100D00007D1CB81B00F1010A4FF000472078000756
:100D100003D4AA4501DB4FF0FF3A0021B7F1004FA1
:100D20000DF143088DF8431024D002202B23002F0F
:100D300001DA7F422D230A21021EA0F1010000DC0E
:100D40005FB197FBF1FC97FBF1F201FB1C7C1746AE
:100D50000CF1300C08F801CDEEE7A8F101000370AA
:100D60002188090501D5452100E06521A0F1010890
:100D700000F8011C09980FA9A1EB0807FF1D00B19D
:100D80000120411901EBEA70A1693844081A401E9C
:100D9000A0612078C00602D42046FFF7ADFA09987A
:100DA00028B1D4E901219047206A401C20622078B4
:100DB000C00622D52046FFF79FFA1EE0002E04DB76
:100DC000B34502DD01A8805D00E03020D4E90121B7
:100DD0009047206A401C2062761CAAF101005FEA5D
:100DE000000A0AD100F066F8C0680168405CD4E9E6
:100DF00001219047206A401C2062281EA5F10105B0
:100E0000DCDC07E0D4E9012118F8010B9047206AE7
:100E1000401C2062381EA7F10107F3DC2046FFF7D3
:100E200081FA032011B041E601694A1C0261087889
:100E3000704700B58FB0CDE901310021059105491A
:100E40007944CDE9031011466846FFF75DFB0FB00A
:100E500000BD0000E5FFFFFF0A6802F8010B0A6011
:100E6000704710B5436913B1AFF3008001E0FFF79D
:100E70006AFA012010BD127800F124010A700022E4
:100E80004A700122EDE711684FF0FF32E9E70000F8
:100E9000074B70B50D467B44FFF7CBFF0446284651
:100EA00000F0BEF810B14FF0FF3070BD204670BDAD
:100EB0000D6B00000048704740C100202DE9F04153
:100EC0001F46044603260168072A01F4006004DB7C
:100ED00008B116A505E016A503E008B115A500E0C8
:100EE00015A521F010002060A069C01EA0610FB1FF
:100EF000401EA0612046FFF7FFF94FB1D4E9012160
:100F000038469047206A401C2062C01C206206E0E0
:100F1000206AFAE7D4E9012115F8010B9047761E03
:100F2000F8D22046FFF7FEF9BDE8F0814E414E00B1
:100F30006E616E00494E4600696E66002DE9F0470D
:100F4000814616468AB0354878440DC88DE80D00B4
:100F500032487844801C03AC0DC884E80D0041F68B
:100F60009B300844372190FBF1F290FBF1F5A5F19D
:100F7000800501FB12041B3C02D56442012000E005
:100F80000020DFF898A080460027FA44AAF1BE0AA4
:100F90000EE0E0070AD03246684607EB470101231E
:100FA0000AEB810100F043FB8DE8070064107F1C11
:100FB000002CEED1194F7F44AE3F19E0E80715D061
:100FC00007EB04100DF1180A90E80E008AE80E00F5
:100FD000C068F04201D1981908903246012306A951
:100FE00003A800F024FB03AB83E807006D10641C2A
:100FF000002DE3D14FF0010332466946B8F1000FEE
:1010000003A802D000F0FEFA01E000F010FBC9E9ED
:101010000001C9F808200AB0BDE8F08724DA000012
:10102000007B00F0800070470048704720C100201E
:101030007546FFF7F9FFAE4605006946534620F0B6
:101040000700854618B020B5FFF722F9BDE820401B
:101050004FF000064FF000074FF000084FF0000B74
:1010600021F00701AC46ACE8C009ACE8C009ACE827
:10107000C009ACE8C0098D46704710B50446AFF30F
:1010800000802046BDE81040FFF7EEB84FF0013C6D
:1010900050F8042B51F8043B9A4221D1A2EB0C03E7
:1010A000934313EACC1317D150F8042B51F8043BA7
:1010B0009A4215D1A2EB0C03934313EACC130BD144
:1010C00050F8042B51F8043B9A4209D1A2EB0C03CF
:1010D000934313EACC13DBD04FF00000704700BFFE
:1010E000D01A01BAB1FA81F101F0180122FA01F027
:1010F000CB40C1F12001DBB2C0B2C01A2CFA01F31F
:10110000D11A914311EAC311E6D170475FEA400C4E
:1011100008BF91F0000F4FEA8C234FEAC12243EA47
:1011200051514FEA1C5018BF00F5F0404FEA300013
:1011300018BF41F000415FEA6C5C00F02980BCF10F
:10114000FF3F08BF40F080407047130C06BF1204F9
:101150004FF0100C4FF0000C130E04BF12020CF1F4
:10116000080C130F04BF12010CF1040C930F04BF01
:1011700092000CF1020CD30F04BF52000CF1010CD1
:1011800011464FF00002A0F11F00A0EB0C007047C9
:1011900011F0004F08BF704731F000413FF4D5AF68
:1011A0000B0C06BF09044FF0100C4FF0000C0B0E97
:1011B00004BF09020CF1080C0B0F04BF09010CF16C
:1011C000040C8B0F04BF89000CF1020CCB0F04BF81
:1011D00049000CF1010CCCF12003A0EB0C0022FA29
:1011E00003F302FA0CF241EA030100F10100704737
:1011F00020F07F4C80EA030023F07F47ACEB07032D
:1012000003F57C5300F0004003F1FF032DE9804912
:101210004FEA154B09B44FEA144325EA0B4E24EA72
:1012200003480FF2042606EB132749083E785FEACD
:10123000320203FB0667C7F5000707FB06F64FEA15
:1012400054374FEAD64606F1020607FB066CCCF18E
:10125000005C4FEA1C472CEA074C07FB06F40CFB2A
:1012600006F504EB15464FEA961634BF00204FF002
:1012700000404FEAD13706FB07FC4FEA1C4C0CFB41
:101280000BF7D21B03FB0CF761EB07010CFB0EF70E
:10129000B0EB074072EB17420CFB08F734BFA2EB30
:1012A0000742B2EB074261EB17414FEA0C444FEAA9
:1012B000910706FB07FC4FEA1C4C0CFB0BF7B0EB4D
:1012C000C74072EB573203FB0CF734BFA2EBC742A7
:1012D000B2EBC74261EB57310CFB0EF7B0EBC70026
:1012E00072EB57720CFB08F734BFA2EBC702B2EBEC
:1012F000C70261EB5771039F4FEA816141EA921186
:1013000004EBCC044FEAD1374FEA826206FB07FCBC
:1013100042EA90124FEA80604FEA1C4C0CFB0BF73C
:10132000D21B03FB0CF761EB07010CFB0EF7B0EBD4
:10133000074072EB17420CFB08F734BFA2EB0742E1
:10134000B2EB074261EB17414FEA8C554FEA910728
:1013500004EB9C2406FB07FC4FEA1C4C0CFB0BF730
:10136000B0EBC74072EB573203FB0CF734BFA2EB74
:10137000C742B2EBC74261EB57310CFB0EF7B0EB43
:10138000C70072EB57720CFB08F734BFA2EBC70221
:10139000B2EBC70261EB577115EB4C254FEA816147
:1013A00041EA92114FEA82624FEAD13742EA901243
:1013B00006FB07FC44F100044FEA80604FEA1C4C36
:1013C0000CFB0BF7D21B03FB0CF761EB07010CFBCB
:1013D0000EF7B0EB074072EB17420CFB08F734BF77
:1013E000A2EB0742B2EB074261EB174115EB1C156C
:1013F0004FEA813141EA92414FEA823242EA904219
:101400004FEA80304FEA0C7644F1000448EA034387
:101410004EEA0B484FF0000EB2EB080C71EB0307DD
:1014200024BF624639464EEB0E0E4FF0000B0018FB
:10143000524149414BEB0B0BB2EB080C71EB03072C
:101440007BF1000B24BF624639464EEB0E0E4FF087
:10145000000B0018524149414BEB0B0BB2EB080C4F
:1014600071EB03077BF1000B24BF624639464EEB5C
:101470000E0E51EA020718BF46F0010616EB0E7673
:1014800055F1000254F1000103D5BDE88901BDE822
:101490000088BDE88901BDE80048B619524141EB1A
:1014A0000101A3F10103704780807F7E7D7C7B7A00
:1014B0007978777676757473727171706F6E6E6D00
:1014C0006C6C6B6A6A6968686766666564646363A6
:1014D00062616160605F5F5E5E5D5D5C5C5B5B5A2C
:1014E0005A59595858575756565555555454535399
:1014F00052525251515050504F4F4F4E4E4D4D4DF4
:101500004C4C4C4B4B4B4A4A4A494949484848473E
:10151000474747464646454545444444444343437C
:101520004342424242414141002B9C4630D4770025
:101530002BD01CB54FEA370703B44FF010004FF023
:101540001001BAF1000F06D0BCF1000FDCBF40F073
:10155000080040F008014FF000000FBCBDE810404B
:101560000BF1010BBBF1010F08BF5FEA170722BFA8
:1015700012F1010211F101014FF0004143F10003AA
:1015800000F0004043EA00007047F9D35708D0E765
:1015900046EA064613F1400F4FEA16461FDD13F1E7
:1015A000200FDFBF16430A46002120335B42BED026
:1015B000C3F1200746EA064602FA07F74FEA164645
:1015C00046EA0706C3F1200722FA03F201FA07F7F9
:1015D00021FA03F14FF0000342EA0702A7E746EAC7
:1015E000020646EA06464FEA164646EA0106BCBF30
:1015F00046EA0646360C4FF000034FF000024FF06B
:10160000000194E72DE9804C9A46934670B491E826
:10161000380007C831EA400C48BF34EA430C03D510
:10162000FFF7E6FDFFF780FFF0BCBDE8008C2DE979
:10163000804C9A46934670B491E8380007C810F081
:10164000804F08BF13F0804F03D100F005F8FFF77B
:101650006BFFF0BCBDE8008C20F07F4780EA030000
:1016600023F07F4C07EB0C03A3F57C5300F0004004
:10167000A3F1FE0392F0000F00F0B38095F0000F8D
:1016800000F077802DE901494FEA11404FEA1446F6
:1016900021EA004800FB06FC24EA064708FB06F6A0
:1016A00007FB08F800FB07F718EB06484CEB164C55
:1016B0004FEA124B18EB07484FEA15464CEB174020
:1016C00022EA0B4E0BFB06FC25EA06470EFB06F64C
:1016D00007FB0EFE0BFB07F71EEB064E4CEB164C02
:1016E0004FF000061EEB074E4CEB174B18EB0B08A8
:1016F00040F1000018EB0E0B58EB000840F1000021
:101700008F1A4FF000013CBFC943661B14BFB5EBF5
:10171000040C00213CBFC943F61B4FEA17444EEAB4
:101720008E0E27EA04454FEA1C4704FB07622CEAA9
:10173000074C05FB07F70CFB05F604FB0CFC16EB4E
:10174000074642EB174216EB0C4642EB1C421BEBE2
:10175000060658EB0202414146EA9E0601D5BDE865
:101760000189B619524141EB0101A3F10103BDE822
:1017700001894FEA14454FEA114724EA054621EA58
:10178000074C05FB07F406FB07F70CFB06F105FB0E
:101790000CFC11EB074144EB17444FEA124711EBE5
:1017A0000C4144EB1C4422EA074C05FB07F206FB04
:1017B00007F70CFB06F605FB0CFC16EB074642EBA5
:1017C000174216EB0C4642EB1C456A1854F1000117
:1017D00048BF7047B619524141EB0101A3F1010323
:1017E000704795F0000F37D04FEA11424FEA144787
:1017F00021EA024624EA074C02FB07F106FB07F741
:101800000CFB06F402FB0CFC14EB074441EB174104
:101810004FEA154714EB0C4441EB1C4125EA074CF9
:1018200002FB07F506FB07F70CFB06F602FB0CFCB8
:1018300016EB074645EB174516EB0C4645EB1C42ED
:10184000121951F1000148BF7047B619524141EBDE
:101850000101A3F1010370474FEA14454FEA114714
:1018600024EA054621EA074C05FB07F106FB07F7CA
:101870000CFB06F24FF0000605FB0CFC12EB0742D6
:1018800041EB174112EB0C4251EB1C4148BF704732
:10189000921841EB0101A3F10103704710B54FF419
:1018A0008054204600F00EF8002804D02046BDE801
:1018B000104000F001B810BD0149086070470000F9
:1018C000143C014001460020024A12680A4200D03E
:1018D00001207047143C014030B51B4A83790168F0
:1018E000002B2AD013688B431360111D0B6804680A
:1018F000A3430B60017911440B68046823430B6018
:10190000114C08342168036899432160231D19682C
:101910000568A94319604179102905D011440A6866
:10192000006802430A6030BD2168026811432160EB
:10193000196800680143196030BD007910440268DD
:101940008A43026030BD0000003C0140014800783D
:1019500000F0C0BEB400002010B50B48802342F256
:10196000B8220421007807F091F84FF4427000F09B
:10197000C3FD4221814305D00121044800F0DEF877
:10198000002010BD012010BDB40000200000024066
:101990002DE9F04705460E460024002006F00AF81F
:1019A00048B3164F02222946387807F0D7F938781D
:1019B0004FF0010808EB80004FF4807909EBC0007C
:1019C000402100F0FFFD2878697841EA0024B44204
:1019D00000DDB4B2611C2846FEF701FF224629460D
:1019E000387807F0BBF93878402108EB800009EB24
:1019F000C00000F0E7FD2046BDE8F087B4000020FD
:101A00002DE9F04180460D46244E01244FF4F8574D
:101A1000307804EB800007EBC00000F06DFDB5EB03
:101A2000802F0BDD307804EB800007EBC00000F066
:101A300063FD4FF6FF7101EA802700E0AFB2AAB262
:101A40004146307807F0BEF930784FF4807504EBEA
:101A5000800005EBC000212100F0B4FD307804EBDC
:101A6000800005EBC00000F047FD0028F6D14FF4E0
:101A70000075307804EB800005EBC00000F03CFD01
:101A8000C006F6D53078102104EB800005EBC000CD
:101A900000F098FD3846BDE8F0810000B400002059
:101AA0002DE9F041002201274FF0030C07FA02F55F
:101AB0000B682B40AB422CD1066853000CFA03F4A0
:101AC000A64306600E79D0F800809E4046EA0806DC
:101AD00006600E79012E01D0022E12D18668A6432F
:101AE00086604E79D0F808809E4046EA08068660F7
:101AF0004668AE43466045688E799640B6B2354337
:101B00004560C568A543C560CC799C40C3681C434B
:101B1000C460521C102AC9D3BDE8F08110B54B0730
:101B2000DB0E9A40C90800EB8100016A0F249C403B
:101B3000A1430162016A1143016210BD41837047F4
:101B4000018370471CB501208DF8040000218DF839
:101B50000610009003208DF8050002208DF8070084
:101B60000121084600F046F869460248FFF798FF51
:101B70001CBD00000000024030B50F23C2780125D3
:101B80000178002A1FD0154A126802F4E062C2F5FB
:101B9000E062C2F30722C2F10404D3404278A240BB
:101BA00084781C401443220101F1E02181F80024D3
:101BB000007800F01F018D404009800000F1E02016
:101BC000C0F8005130BD01F01F0085404809800079
:101BD00000F1E020C0F8805130BD00000CED00E0C5
:101BE0000249084302490860704700000000FA05F6
:101BF0000CED00E0054A002903D011680143116093
:101C0000704711688143116070470000303802400E
:101C1000054A002903D0116801431160704711681B
:101C2000814311607047000040380240054A002996
:101C300003D011680143116070471168814311603E
:101C400070470000443802402DE9F0478CB08046D0
:101C5000894692461C467F200B9080216848FEF7FB
:101C6000BEFD674D0BAFCDE90075664E00235246B1
:101C700049464046029600F0F3FE6348007820B1E2
:101C800000F036FF0CB0BDE8F087112C71D00CDCF1
:101C9000112C6FD2DFE804F0AB23323B44555D6575
:101CA000789096ABABABABAB4400322C10D00CDCD5
:101CB0001B2C60D004DC152C3AD0162C5AD150E0E5
:101CC000302C05D0312CF9D102E0333C042C51D812
:101CD0004B484EA102788030FEF7FAFA8CE0484873
:101CE000007828B146484BA18030FEF7F1FA83E036
:101CF00043484AA18030FEF7EBFA7DE0404849A115
:101D000090F9002080301346FEF7E2FA74E03C4878
:101D100047A1B0F9002080301346FEF7D9FA6BE0F6
:101D2000374846A1026880301346FEF7D1FA63E0D7
:101D3000334845A10CC87830CDE90023FEF7C8FA36
:101D40005AE02F4845A1027880301346FEF7C0FACA
:101D500052E02B4844A1028880301346FEF7B8FABF
:101D60004AE0274843A1026880301346FEF7B0FAE4
:101D700042E017E03BE0224841A10CC87830CDE9B1
:101D80000023FEF7A5FA37E01D48006807F08AFC3B
:101D900041EC100B1A4853EC102B3EA18030FEF79B
:101DA00097FA29E016483BA190ED000B803053ECE8
:101DB000102BFEF78DFA1FE0114901F18000FEF7AC
:101DC00067FC19E00E4900208031087000240AE009
:101DD0002A5D31A103A8FEF77BFA094803A98030E8
:101DE000FEF77AFC641C0B988442F1DB04E00448A3
:101DF0002CA18030FEF76CFA0148803042E70000E9
:101E00009EBC002060AE0A000000002030782578DB
:101E100000000000545255450000000046414C535C
:101E200045000000307825322E32782025640000ED
:101E3000307825342E347820256400003078253819
:101E40002E3878202564000030782531362E313642
:101E50006C6C7820256C6C640000000030782532B2
:101E60002E32782025750000307825342E347820E5
:101E700025750000307825382E387820257500002B
:101E800030782531362E31366C6C7820256C6C75A7
:101E90000000000025660000307825322E327820C0
:101EA00000000000556E6B6E6F776E207479706560
:101EB000000000004FF400510148FFF741BE000050
:101EC000001402404FF400510148FFF737BE0000F4
:101ED0000014024010B50B4C0221204600F0BAF865
:101EE0000028F9D0FF21204600F0BDF8012120464E
:101EF00000F0B0F80028F9D0204600F0B2F8C0B2E7
:101F000010BD0000003C004070B505460A4C02219F
:101F1000204600F09FF80028F9D02946204600F01E
:101F2000A2F80121204600F095F80028F9D02046BB
:101F3000BDE8704000F095B8003C0040002904D096
:101F4000018841F0400101807047018821F0400183
:101F500001807047F0B587B001210420FFF74AFEE9
:101F600001212020FFF746FE0121C803FFF750FEA4
:101F7000314F06220A213846FFF7D0FD06220B21F9
:101F80003846FFF7CBFD06220C213846FFF7C6FD89
:101F900002268DF8186000248DF81A407002059012
:101FA0008DF81B6003258DF8195005A93846FFF7F9
:101FB00077FD8DF818608DF81A40E802059001262B
:101FC0008DF81B608DF8195005A93846FFF768FD9C
:101FD0008DF818608DF81A40770305978DF81B600F
:101FE0008DF81950154D05A92846FFF759FD3946BA
:101FF0002846FFF7A5FDADF80C40ADF80840ADF858
:1020000006400720ADF81000ADF80440ADF80040E0
:10201000ADF80E404FF48270ADF802006815ADF8CF
:102020000A00074C6946204600F01FF801212046AF
:10203000FFF784FF07B0F0BD000802400014024023
:10204000003C0040012080F310887047002080F39E
:10205000108870470246002012890A4200D00120F1
:102060007047808970478181704730B5028802F4DB
:1020700041530A884C88CD8822438C882C432243C4
:102080000C8922434C8922438C892243CC892243E8
:102090001A430280828B22F400628283098A0182C1
:1020A00030BD000010B58A07120F0F23934021F0B6
:1020B00003040649214401F608010C689C430C60A6
:1020C0000B68904003430B6010BD000000300140DE
:1020D0000CB50022019200922749086840F4803034
:1020E00008604FF4A043086800F4003000900198A5
:1020F000401C0190009810B901989842F3D10868EB
:10210000800302D50120009000E000920098012891
:1021100031D119484030026842F0805202601748BD
:10212000026842F4404202601348083002680260CC
:10213000026842F400420260026842F4A052026067
:10214000021F0F4B13600A6842F080720A600A682F
:102150009201FCD50B4A40F205711160016821F033
:1021600003010160016841F0020101600168C1F3EF
:1021700081010229FAD10CBD0038024000700040F4
:1021800019544007003C024070B505460E46002435
:1021900003E0FFF79FFE2855641CB442F9DB70BDD5
:1021A00070B505460E46002404E015F8010BFFF754
:1021B000ABFE641CB442F8DB70BD000010B51248E1
:1021C000016841F4700101601048016841F00101AB
:1021D00001600E4A00210832116002680C4B1A405F
:1021E0000260031D0B4A1A60026822F4802202601A
:1021F00006480C300160FFF76BFF03494FF00060A9
:102200008039086010BD000088ED00E00038024011
:10221000FFFFF6FE1030002410B50121054800F044
:1022200024F8012805D10121BDE81040800700F005
:1022300006B810BD000C0040C94301827047C94375
:1022400001827047002904D0018841F0010101801A
:102250007047018821F0010101807047024600208B
:10226000128A0A4200D00120704702460020138AD9
:102270000B4092890A40002B02D0002A00D0012096
:10228000704700B50346184600F00AF8188940F078
:102290000700188100BD018921F007010181704705
:1022A000028922F070020A4302817047028922F0FB
:1022B0008002028102890A4302817047828822F0EB
:1022C0007002828082880A438280704730B502881B
:1022D000164C174DA0420DD0A8420BD0B0F1804F44
:1022E00008D0144B984205D0134B984202D0134BA0
:1022F000984203D122F070034A881A43104B984247
:1023000006D0104B984203D022F440730A891A4336
:1023100002804A68C2620A880285A04201D0A842AF
:1023200001D1897A01860121818230BD00000140FE
:10233000000401400004004000080040000C004080
:10234000001000400014004010B500F013F8BDE884
:10235000104000F039B8000010B501210448FFF723
:1023600071FF0121BDE810408807FFF76BBF000037
:10237000000400403EB501210846FFF749FC4FF03C
:1023800080442046FFF787FF0021ADF80810ADF824
:1023900002100C4A01925322ADF800208DF80A1069
:1023A00069462046FFF792FF01212046FFF744FFD0
:1023B00080212046FFF77AFF20212046FFF77EFF8D
:1023C0003EBD00003F420F003EB501210220FFF755
:1023D0001FFC0E4C10212046FFF753FF80212046A2
:1023E000FFF764FF0021ADF80810ADF80210084AAD
:1023F0000192ADF800108DF80A1069462046FFF7EB
:1024000065FF01212046FFF717FF3EBD0004004095
:1024100040420F002DE9F04186B001212020FFF756
:10242000E9FB0121C803FFF701FC01218803FFF745
:10243000FDFB01258DF8145000248DF81640EE02A6
:1024400004968DF8175003278DF81570DFF870800B
:1024500004A94046FFF724FB31464046FFF770FBD6
:102460008DF814408DF816402E0304968DF8175001
:102470008DF8157004A94046FFF712FB0C210520CA
:10248000FFF710FE02968DF80C400C208DF80D0021
:102490008DF80E5002A8FFF71FFA4FF4A060FFF767
:1024A0009FFB28208DF804008DF805408DF806402C
:1024B0008DF8075001A8FFF75FFB06B0BDE8F0817B
:1024C0000014024070B50B4D4FF4006421462846BD
:1024D000FFF734FB322000F063F921462846FFF76E
:1024E0002FFBC82000F05CF906F02EFD0128FBD17F
:1024F00070BD000000140240F8B50446134EF068A9
:10250000804770698047716AC4F30740C4F30725A8
:1025100099B1B26A8AB18DF800008DF801508DF83A
:102520000240032168469047F06980470446B1693C
:102530008847316988472046F8BD316A8847316A43
:1025400028468847316AE0B28847EDE788000020D6
:102550002DE9F84304460E461746194DE8688047B2
:1025600068698047696AC4F30740C4F30728A1B1CA
:10257000AA6A92B18DF800008DF801808DF80240B2
:102580000321684690476A6A394630469047A869F1
:10259000804728698047BDE8F883296A8847296A07
:1025A00040468847296AE0B28847002404E0E86989
:1025B00080473055641CA4B2BC42F8D3E7E7000062
:1025C00088000020F8B504460E46154DE86880479F
:1025D0006869804744F00404AA6A8AB1200C8DF827
:1025E0000000200A8DF801008DF802408DF803608C
:1025F000042168469047A869804728698047F8BD4C
:102600002A6AC4F307409047296AC4F30720884721
:10261000296AE0B28847296A30468847EBE700001C
:1026200088000020F8B504460E461746184DE868A5
:1026300080476869804744F00404AA6A9AB1200C74
:102640008DF80000200A8DF801008DF8024003216A
:1026500068469047AA6A394630469047A86980473D
:1026600028698047F8BD296AC4F307408847296A6A
:10267000C4F307208847296AE0B28847002404E0B1
:10268000296A305D8847641CA4B2BC42F8D3E5E7F0
:102690008800002003B401984100009850EAC1204E
:1026A00018BF04204A0D18BF40F0010040F2FF722D
:1026B000B2EB515F08BF40F00200012808BF0520BF
:1026C00002B0704730380A2801D20120704700203C
:1026D0007047704710B5044600BF082C02DD4FF06C
:1026E000FF3010BD00BFA100491C4FF4807202EB07
:1026F000C1001021FFF766FF00BFA100491C4FF485
:10270000807202EBC100FFF7F7FE0028F5D1A100AF
:10271000491C4FF4007202EBC1001F21FFF752FF6A
:102720000120A0400F49098881430E480180012003
:10273000A0400D49098881430B48018000200B49C6
:1027400021F814000A49085500BFA100491C4FF4A4
:10275000407202EBC100FFF7CFFE0028F5D1012047
:10276000BFE700007200002074000020C894002021
:10277000760000200EB501210420FFF749FA53200E
:1027800001900020ADF80000ADF80800ADF802009F
:1027900069460248FFF79AFD0EBD000000080040A0
:1027A00070B54FF47A7100FB01F40C4D01212846FD
:1027B000FFF748FD09E001212846FFF74FFD0028FB
:1027C000F9D001212846FFF737FD641E601CF2D1C5
:1027D0002846BDE870400021FFF734BD00080040E6
:1027E00010B5112862D00CDC11286ED2DFE800F0A1
:1027F0009622272C3140454A598C9196969696966A
:102800003600322862D00CDC1B2845D004DC1528A9
:1028100029D0162859D13AE030284CD031287DD122
:102820004EE0A0F13301052978D2DFE801F05459D8
:102830005E6368003DA13F48FDF74AFD73E03EA19D
:102840003C48FDF745FD6EE03EA13A48FDF740FDEE
:1028500069E03FA13748FDF73BFD64E03FA1354803
:10286000FDF736FD5FE040A13248FDF731FD5AE04B
:1028700040A13048FDF72CFD55E041A12D48FDF762
:1028800027FD50E041A12B48FDF722FD4BE042A17E
:102890002848FDF71DFD46E042A12648FDF718FD3A
:1028A00041E043A12348FDF713FD3CE042A121484C
:1028B000FDF70EFD37E042A11E48FDF709FD32E0AD
:1028C00041A11C48FDF704FD2DE027E040A1194877
:1028D000FDF7FEFC27E040A11648FDF7F9FC22E0D9
:1028E0003FA11448FDF7F4FC1DE03FA11148FDF79E
:1028F000EFFC18E03EA10F48FDF7EAFC13E03EA113
:102900000C48FDF7E5FC0EE03DA10A48FDF7E0FCB0
:1029100009E03FA10748FDF7DBFC04E0024640A1C7
:102920000448FDF7D5FC034810BD0000424F4F4C52
:1029300045414E001EBD0020494E54454745523882
:1029400000000000494E5445474552313600000012
:10295000494E54454745523332000000494E5445D4
:102960004745523234000000494E544547455236DF
:1029700034000000554E5349474E4544380000008E
:10298000554E5349474E454431360000554E534944
:10299000474E454433320000554E5349474E454457
:1029A00032340000554E5349474E454436340000FA
:1029B0005245414C333200005245414C3634000000
:1029C00042495431000000004249543200000000E6
:1029D00042495433000000004249543400000000D2
:1029E00042495435000000004249543600000000BE
:1029F00042495437000000004249543800000000AA
:102A000056495349424C455F535452494E47000082
:102A10004F435445545F535452494E470000000001
:102A20005479706520307825342E34580000000029
:102A300010B50021094B4FF6FF7400E0491C01EB73
:102A4000811233F81220A24201D08242F6D101EB6A
:102A5000811003EB4000801C10BD0000D4AE0008C4
:102A60007FB516460D46DDE908420A99CDE90034E6
:102A7000CDE90221014633462A46024800F040FBD8
:102A800004B070BD0400002040F2CE51FDF7A7BE97
:102A9000014800F007BE00000400002070B50D469C
:102AA00000F008F8044614B1284600F009F8204662
:102AB00070BD00000146014801F006BA0400002084
:102AC000002100F001B800000A460146014801F06B
:102AD0009BBD000004000020014801F017BF00006A
:102AE000040000200146014802F0D0B90400002093
:102AF000014802F02BBA00000400002070B5064621
:102B000000200B4C401C00EBC00354F83320551C34
:102B100006D0B242F6D104EBC30252688A42F1D128
:102B200000EBC00154F83110491C00D1002070BDE9
:102B3000949700080146014802F0ECBB0400002015
:102B400010B50021094B4FF6FF7400E0491C01EB62
:102B5000811233F81220A24201D08242F6D101EB59
:102B6000811003EB4000801C10BD0000A4E30008AE
:102B7000401CC0B2072800D9012070470A46014610
:102B8000014803F09FBA0000040000200A460146F5
:102B9000014803F051BB00000400002013460A4620
:102BA0000146014803F02EBC0400002008B5009344
:102BB00013460A460146024803F040FC08BD0000E7
:102BC00004000020014804F03CB80000040000208C
:102BD00010B50021084B00E0491C01EB411253F8ED
:102BE0002220541C01D08242F6D101EB411003EBAC
:102BF0008000001D10BD0000549E000870B5044602
:102C00004FF6FF75284604F0A9FF2080284604F0FF
:102C1000A5FF6080284604F0A1FFA08040F20115C6
:102C2000284604F09BFFE080284604F097FF2081AF
:102C3000284604F093FF608148F6A40004F08EFF5C
:102C4000A08170BD0A460146014804F03FBC000067
:102C5000040000200A460146014804F08BBC000035
:102C60000400002013460A460146014804F0F0BC67
:102C70000400002010B50021094B4FF6FF7400E05E
:102C8000491C01EB811233F81220A24201D082428A
:102C9000F6D101EB811003EB4000801C10BD000059
:102CA000BEC9000813460A460146014804F05BBD50
:102CB000040000202DE9FF478046DDE90C960D4613
:102CC00092461F46404602F06BFAC4B240F2F7202B
:102CD00014FB00F0CDE901A708EB400100950D467B
:102CE000CDF80C9001F5905123460122404604F0A6
:102CF0002EF932462146404604F006FD0646002ED7
:102D000005DD05F12C013A464846FDF7F1FC0022AD
:102D10002146404604F009F904B03046BDE8F0878A
:102D20003EB50024029402ACCDE900430223FFF734
:102D3000C1FFBDF808003EBD2DE9FF470546DDE9AE
:102D40000C988A4617461E46284602F029FAC4B255
:102D500040F2F72014FB00F005EB4001CDE900A79D
:102D6000CDE9026901F5905123460222284604F07C
:102D7000EEF842462146284604F0C6FC06460022EC
:102D80002146284604F0D1F804B03046BDE8F0876B
:102D90001FB582B0089B05ACCDE900430223FFF7C5
:102DA000CBFF06B010BD2DE9FF478046DDE90C964C
:102DB0000D4692461F46404602F0F2F9C4B240F278
:102DC000F72014FB00F0CDE901A708EB40010095C6
:102DD0000D46CDF80C9001F5905123460722404650
:102DE00004F0B5F832462146404604F08DFC064614
:102DF000002E05DD05F12C013A464846FDF778FC2A
:102E000000222146404604F090F804B03046BDE868
:102E1000F0872DE9FF470546DDE90C988A461746FD
:102E20001E46284602F0BCF9C4B240F2F72014FB5B
:102E300000F005EB4001CDE900A7CDE9026901F5FD
:102E4000905123460822284604F081F84246214644
:102E5000284604F059FC064600222146284604F084
:102E600064F804B03046BDE8F0872DE9FF4780469E
:102E7000DDE90C960D4692461F46404602F090F959
:102E8000C4B240F2F72014FB00F0CDE901A708EB33
:102E9000400100950D46CDF80C9001F59051234668
:102EA0000422404604F053F832462146404604F0DE
:102EB0002BFC0646002E05DD05F12C013A4648465E
:102EC000FDF716FC00222146404604F02EF804B01F
:102ED0003046BDE8F0872DE9F04FC7B00F46904669
:102EE0001D46D0F80090484602F05AF9C0B245900D
:102EF0000024B8F800004FF0060B4FF4987A8DE8E4
:102F0000010C4598039540F2F72110FB01F009EB05
:102F1000400606F590564690042231464846459BA9
:102F200004F015F80C2005A90590A7F1010B8A46BD
:102F300016E04FF4987238F81430CDE9013204EB02
:102F4000440005EB40000621CDE90310012000906C
:102F5000314604224846459B00F060FB4AF82400B5
:102F6000641C5C45E5DBBC4216DA04EB440005EB6F
:102F700040014FF4987038F81430CDE90130062242
:102F8000CDE9032100200090314604224846459BAC
:102F900000F044FB4AF824004846509A459904F052
:102FA000B3FB0446200014D400204699202202EBF3
:102FB00041030CE05AF8201000EB40024944194448
:102FC00005EB42020E68166089889180401CB84269
:102FD000F0DB00224846459903F0A7FF47B02046A2
:102FE000BDE8F08F3EB50024029402ACCDE9004369
:102FF0000223FFF73AFFBDF808003EBD2DE9FF4769
:103000000546DDE90C988A4617461E46284602F01A
:10301000C7F8C4B240F2F72014FB00F005EB400102
:10302000CDE900A7CDE9026901F5905123460522BB
:10303000284603F08CFF42462146284604F064FBF4
:10304000064600222146284603F06FFF04B03046B2
:10305000BDE8F0871FB582B0089B05ACCDE9004301
:103060000223FFF7CBFF06B010BD2DE9F04188B079
:103070000446DDF838800D4616461F46182102A882
:10308000FDF7CFFB684604F0EBFCDDE9000CCDE971
:10309000020CADF81250ADF814608DF81670E16AAC
:1030A0000120087000208DF81700CDF8188002A9C3
:1030B000204602F030FF08B0BDE8F0812DE9F04174
:1030C00086B00446DDF830800D4616461F461821AE
:1030D0006846FDF7A6FBADF80A50ADF80C608DF818
:1030E0000E70E16A0120087004208DF80F00CDF801
:1030F00010806946204602F00EFF06B0BDE8F08160
:103100002DE9FF4FADF6AC3D0DF6E436DDF8E0BB42
:10311000C0CE81460DF5BB60FFF7B6FC00230DF570
:10312000BB624846DDF8B01B02F092FC02A8FFF734
:10313000ABFC0DF5BB640A20ADF808000025ADF826
:103140000A508DF80C50DDF8B00BD9F80410C0EB24
:10315000001202EB8012C82000EB820A11F80A006C
:10316000FFF706FDD9F8041001F80A004FF0030834
:1031700008EB00108DF80D004FF40050ADF80E0074
:10318000BBF1000F04D04FF050008DF8100003E0A9
:103190004FF040008DF81000DDF8B40BADF81100D1
:1031A00006D0DDF8B80B012802D90120CDF8B80B04
:1031B000DDF8B80B8DF813000020059044F620636D
:1031C00002AA4846DDF8B01B02F03BFD0546002D83
:1031D00033DD0DF5BB60FFF757FC0DF5BB624846CC
:1031E000DDF8EC3BDDF8B01B02F032FC0546002DAB
:1031F000EEDD9DF8DD0500F00F0003287DD1BDF860
:10320000DE15B0EB113FF9D1BDF8E105BDF81110A5
:103210008842F3D19DF8E005810719D5C0F38100FC
:10322000C0F104083068404508DB424604F10C0157
:103230003846FDF75DFAC6F80080DAE00025032085
:1032400000900DF53B6148460EC902F07EFDD0E0CE
:10325000DDF8E485306840457CDB3846BDF8D8159C
:103260000A391FFA81FB0DF5BD61C34573DA5A4671
:10327000FDF73EFA07EB0B00CDF8A80BC6F800B03F
:103280004FF00108002761E00A20ADF80800002592
:10329000ADF80A508DF80C50D9F8040010F80A0067
:1032A000FFF766FCD9F8041001F80A004FF0030B91
:1032B0000BEB00108DF80D004FF40050ADF80E0030
:1032C00007F160008DF81000DDF8B40BADF81100C7
:1032D000DDF8B80B8DF81300059544F6206302AABB
:1032E0004846DDF8B01B02F0ACFC0546002D2BDD96
:1032F0000DF5BB60FFF7C8FB00E06DE00DF5BB62AC
:103300004846DDF8EC3BDDF8B01B02F0A1FB0546BA
:10331000002D19DD607900F00F00032806D1E08848
:10332000BBEB103F02D1207A410915D04FF00008C5
:10333000207A802837D0012000900DF53B61484667
:103340000EC902F002FD002587F01007B8F1000F4A
:103350009AD14EE036E02FE02188C91E1FFA81FB8A
:10336000C10710D04FF00008BBF1070F03D1C0F325
:103370004200C0F1070B5A4604F10901DDF8A80B21
:10338000FDF7B6F90BE05A4604F10901DDF8A80B88
:10339000FDF7AEF9DDF8A80B5844CDF8A80B30685E
:1033A00058443060D0E7E06800900DF53B61484636
:1033B0000EC9FFF75AFEC6E74246FDF799F9C6F86F
:1033C000008016E00025032000900DF53B61484683
:1033D0000EC902F0BAFC0CE09DF8E00580280DD083
:1033E000012000900DF53B6148460EC902F0ADFC8E
:1033F00000250DF6BC3D2846BDE8F08FDDF8E4055C
:1034000000900DF53B6148460EC9FFF72EFEEFE731
:10341000F0B589B004460D4617461E46182103A88C
:10342000FDF7FFF901A804F01BFBDDE9010CCDE974
:10343000030CADF81650ADF8187000208DF81A0086
:10344000E16A0120087008208DF81B00ADF81C60AF
:1034500003A9204602F05FFD09B0F0BD2DE9FF4F42
:10346000ADF6A43DDDF8DCABDDF8E09B0DF2D45009
:10347000FFF70AFB0DF6A430002303C80DF2D45267
:1034800002F0E6FA01A8FFF7FFFA0DF2D454042087
:10349000ADF804000020ADF806008DF80800DDF856
:1034A000A40B4168DDF8A80BC0EB001202EB801200
:1034B000C82000EB8205485DFFF75AFBDDF8A41B2E
:1034C00049684855052101EB00108DF809009DF869
:1034D0000A0020F00700401C20F0080020F0100037
:1034E000DDF8AC1B61F347108DF80A00DDF8B00B76
:1034F0008DF80B00DDF8D80BADF80C0000250DF2AF
:10350000DE5801260DF6A43044F6206303C801AA54
:1035100002F097FB0746002F79DC7AE00DF2D450D9
:10352000FFF7B2FA0DF6A4300DF2D45203C8DDF85D
:10353000E43B02F08DFA0746002F5DDD607900F074
:103540000F01052933D1A07900F00702022A2ED1FC
:10355000C2062CD4DDF8AC2BB2EB501F27D1E27998
:10356000DDF8B00B824222D12088001F1FFA80FBB9
:1035700005EB0B0085B2DAF80000A84206DB5A46DC
:1035800041464846FDF7B4F8D94409E0291AABEBA7
:1035900001018AB285B21AB141464846FDF7A8F842
:1035A000A079000733D40026CAF800502FE0002687
:1035B000052915D1A07900F00701022910D1C00614
:1035C0000ED521880DF5BB6001EB00080DF6A43087
:1035D000B8F8003003C8DDF8D82BFFF719FF09E071
:1035E000012000900DF6A430002303C8DDF8D82B8D
:1035F00002F0ABFB00270AE00026042000900DF645
:10360000A430002303C8DDF8D82B02F09EFB002E67
:1036100084D10DF6B43D3846BDE8F08F2DE9F05F5A
:103620009446DDE90D5BDDE90B9A0A9A0C4600EB46
:10363000830808F58058B8F8DC0D86B2214605F1FC
:103640000C00CF893844C881C88A40F40040C88241
:10365000A719B81E80F802C0C370A0F80490A0F8A3
:1036600006A0002A03D045F40041018100E0058155
:1036700007F10A005B462A46614604F080F9002201
:10368000701901198A72CA720C30C8F8DC0D301F2B
:10369000BDE8F09F0021002240F82120491C0229AA
:1036A000FADB70470068AFF3008010B50446E069AC
:1036B000002804DBFEF74AF94FF0FF30E0610020FC
:1036C00010BD2DE9FF4F89B00646DDE916984FF091
:1036D000000AD346002003900024C3EB031101EB42
:1036E00083177068042101EB8701415A02914FF45E
:1036F000827101EB87010891455C182101EB87017C
:10370000415A00290BD0792100EB870001E06D1CA4
:10371000EDB201EB051202441268002AF7D1C3EBA7
:103720000310282100EB831001EB800107912C216D
:1037300001EB80010691262101EB800005900B989A
:1037400000EB800101EB4010049053E100EB870097
:1037500001E0641CE4B2072C04D204F17101415C65
:103760000429F6D14FF0310E0EEBC403C1188122AB
:1037700002EB05121044098801807268332102EBC4
:10378000870001EBC401014409888B440AEBC10A9C
:1037900003441B88194489B2059B32F803C01BE01F
:1037A000641CE4B201E0641CE4B2072C04D204F10E
:1037B0007103C35C042BF6D10EEBC40303441B88D6
:1037C0008B420DD8332101EBC401014409888B449D
:1037D0000AEBC10A194489B2D44501DD072CDFD3B5
:1037E0000799515800297ED098F8000038B1D9F8CF
:1037F0000000401CC9F80000002088F80000706834
:10380000D9F8001000EB8702792000EB0510104476
:103810000160706898F8001000EB87027F2000EBD1
:1038200005101154072088F800005846726807995F
:103830005158039A0244914201DA0398081AD9F8C0
:1038400000100144C9F80010716801EB87027D2166
:1038500001EB051111440880716898F8002001EB14
:103860008703802101EB05115A54002188F80010CC
:1038700003990844039070687D2100EB870001EBF9
:1038800005110144098879B30021832202EB051256
:10389000815401207168842201EB870102EB05123B
:1038A00088547168852201EB870102EB0512885468
:1038B000706841F2707100EB8702792000EB05100F
:1038C0001044CDE900014FF4C06000EB0512102355
:1038D00030680299FFF792FB30690499242202EBC9
:1038E000C101425A01E007E001E0521C42527068F7
:1038F00006994158E9B37BE0792101EB05121044A8
:10390000D9F800300360706898F8001000EB870366
:103910007F2000EB0510195471680598095C98F830
:1039200000000844401EC0B288F80000072809D9EA
:10393000D9F80000401CC9F8000098F800000838C9
:1039400088F80000706800EB87018818D9F800201B
:103950000068101A401C7D2202EB051211440880F9
:10396000716898F8002001EB8703802101EB0511B5
:1039700000E014E05A5498F80010491CC9B288F8C5
:10398000001007297FF674AFD9F80010491CC9F858
:10399000001098F80010083988F8001068E70B99B3
:1039A00081B1792100EB870201EB051111443369E4
:1039B0000A680A990A44049953F83110521A069970
:1039C00042500AE0792100EB870201EB0511114416
:1039D0000A680A990A440699425070687F2100EBF0
:1039E000870201EB0511515C302202EB8702815402
:1039F0006D1CEDB2072C08D270680599039A415AE4
:103A0000C91DB2EBD10FFFF6A1AE716808980D5435
:103A10000DB0BDE8F08F2DE9FF4F8BB00546DDE915
:103A200018984FF0000AD346002004900024C3EBFE
:103A3000031101EB83164FF48271686801EB860174
:103A40000A91475C042101EB8601405A03901C2037
:103A500000EB86000990202000EB860008901820DB
:103A600000EB860007900D9800EB800101EB401001
:103A700006904AE100EB860001E0641CE4B2072CEA
:103A800004D204F17101415C0329F6D14FF0310EEB
:103A90000EEBC403C118812202EB071210440988FF
:103AA00001806A68332102EB860001EBC401014406
:103AB00009888B440AEBC10A03441B88194489B264
:103AC000079B32F803C01BE0641CE4B201E0641CF5
:103AD000E4B2072C04D204F17103C35C032BF6D1CA
:103AE0000EEBC40303441B888B420DD8332101EB3A
:103AF000C401014409888B440AEBC10A194489B204
:103B0000D44501DD072CDFD30999515800297ED017
:103B100098F8000038B1D9F80000401CC9F800003E
:103B2000002088F800006868D9F8001000EB8602D1
:103B3000792000EB071010440160686898F80010C5
:103B400000EB86027F2000EB07101154072088F855
:103B5000000058466A6809995158049A02449142F3
:103B600001DA0498081AD9F800100144C9F80010C5
:103B7000696801EB86027D2101EB07111144088081
:103B8000696898F8002001EB8603802101EB07119A
:103B90005A54002188F80010049908440490002029
:103BA0006968832201EB860102EB07128854022028
:103BB0006968842201EB860102EB07128854012018
:103BC0006968852201EB860102EB07128854686858
:103BD00041F2707100EB8602792000EB071005902E
:103BE0001044CDE900014FF4C06000EB0712102330
:103BF00028680399FFF702FA28690699222202EB46
:103C0000C101425A521C42526868089900E002E021
:103C10004158F1B377E0792101EB07110844D9F855
:103C200000200260686898F8002000EB86037F207F
:103C300000EB07101A546A680798105C98F8002087
:103C40001044401EC0B288F80000072809D9D9F8EE
:103C50000000401CC9F8000098F80000083888F8F7
:103C60000000686800EB86025018D9F80010006860
:103C7000081A401C7D2101EB071111440880696876
:103C800098F8002001EB8603802101EB07115A54BC
:103C900000E013E098F80010491CC9B288F8001041
:103CA00007297FF679AFD9F80010491CC9F8001030
:103CB00098F80010083988F800106DE70D9971B177
:103CC000059900EB860211442B690A680C990A4495
:103CD000069953F83110521A0899425008E0059994
:103CE00000EB860211440A680C990A440899425074
:103CF00068687F2100EB860201EB0711515C2422EA
:103D000002EB860281547F1CFFB2072C08D2686840
:103D10000799049A415AC91DB2EBD10FFFF6AAAE1A
:103D200069680A980F540FB0BDE8F08F2DE9F04193
:103D300005460E460021254A002002EB011358607B
:103D4000491C0129F9DB012440F2031711E04EB1AF
:103D5000C4EB041101EB8411686807EB8101405C3E
:103D6000B04204D100222146284601F051FC641CD7
:103D7000A4B2A8680068A042E9DA4FF47A7801F0AA
:103D800001FA044614B1404603F0DCFE002CF6D1E3
:103D9000012414E04EB1C4EB041101EB84116868F6
:103DA00007EB8101405CB04207D12146284601F073
:103DB000AFFC2146284601F02EFD641CA4B2A86881
:103DC0000068A042E6DABDE8F0810000BC000020F7
:103DD0002DE9F0414068C1EB011202EB811100EBCB
:103DE0008104D4E90201FEF789FE0646A4F8F660D4
:103DF000300041D0324806EBC60100EBC10595F812
:103E00003100E08205F1080104F58870FCF740FC00
:103E1000688EE084A98E2183012309B184F8B9302A
:103E2000022708B184F8BA7095F8442084F88520F8
:103E300095F8452084F89520EA8EA4F84120D5F81D
:103E400038C0C4F845C04FF0030C01B1BAB1C91D68
:103E5000C908A4F8431084F873C0A98FA4F84910C6
:103E60002A6CC4F84D20042200B1C9B1C01DC0089D
:103E7000A4F84B0084F874203046BDE8F0814FF47C
:103E8000706224F8312FC91DC90861800D49616035
:103E900084F8543084F8537084F840C0313CDCE737
:103EA0004FF4805124F8391FC01DC00860800020E5
:103EB000606084F85C3084F85B3084F83920DBE79C
:103EC00094970008440001002DE9F34F87B00446A1
:103ED000204601F023FA204600F059FF0390039892
:103EE00000286EDD204602F08BFF0125A94660E028
:103EF000C5F101001FFA80F841F270773B464FF49C
:103F0000A07241462068FEF70BFFC5EB051202EBDD
:103F100085166168142202EB8602885205F58050EE
:103F200083B20097102241462068FEF731FF012D31
:103F300048D0002300974FF4807241462068FEF776
:103F400027FF3B46102241462068FEF7E9FE8046E7
:103F50006168042000EB860021F8008004A8CDE908
:103F600000070223122241462068FEF77EFF6168A7
:103F70000622BDF8100002EB8602885205A8CDE9A2
:103F80000007022340F2025241462068FEF76DFF0F
:103F9000BDF81400400605D5FA21606801EB8601E2
:103FA00000F8019008222946204602F03FFD6D1CD2
:103FB000ADB2A0680068A8429ADA012544F62066EE
:103FC00017E00FE30123B5E732462946204602F009
:103FD0007BFDC5EB051101EB85130821626801EB40
:103FE000830150500A222946204602F01FFD6D1C15
:103FF000ADB2A0680068A842E6DA012514E03246B6
:104000002946204602F060FDC5EB051101EB851342
:104010000C21626801EB830150500C222946204696
:1040200002F004FD6D1CADB2A0680068A842E6DA9B
:104030000125102714E044F620622946204602F0AC
:1040400043FDC5EB051202EB8512616807EB8202A6
:10405000885018222946204602F0E8FC6D1CADB2BB
:10406000A0680068A842E6DA01251CE044F6206258
:104070002946204602F028FDC5EB0511636801EBD7
:104080008511C02202EB81029852000C6368BE22A7
:1040900002EB8101585220B11A222946204602F033
:1040A000C5FC6D1CADB2A0680068A842DEDA01272D
:1040B0004FF0020A91E2C7EB071000EB8715616829
:1040C000BE2000EB850831F80800D0B144F620622C
:1040D0003946204602F0F8FC6268C42101EB8501F4
:1040E0005052010C6368C22000EB8502995260684F
:1040F00011B930F8081081521C223946204602F0CE
:1041000095FC6168042000EB8500085A069041F296
:104110007073082220680699FEF764FF400706D5F1
:10412000C920616800EB850001F8009005E00020DF
:10413000C921626801EB8501505441F270734FF45C
:10414000887220680699FEF74DFF0026B346C0F33B
:104150000121022902D101264FF0010BC0F3812178
:10416000022903D1761CF6B24BF0020BC0F30131E9
:10417000022903D1761CF6B24BF0040BBAEB903F48
:1041800003D1761CF6B24BF0080B41F27073072294
:1041900020680699FEF726FFCA22616802EB8502B5
:1041A0008854CB23606803EB85014654CC216068BA
:1041B00001EB850100F801B000216268CE2000EB20
:1041C000850C22F80C10012F23D90020791E09B28A
:1041D000C1EB011202EB8112666803EB8202B25C52
:1041E000012A01D1401E00B2032A01D1401C00B2B5
:1041F000042A01D1801C00B2002801DB012A01D869
:10420000012902D126F80C100121491E09B200290A
:10421000DEDCF64B01223946204603F0A4FA606842
:1042200030F80810F1B3712101EB850100F801901D
:104230007220616800EB850001F800A00320732163
:10424000626801EB8501505404207421626801EB1F
:1042500085015054C021606801EB85013122415A2B
:1042600002EB8502104401806068332101EB850177
:1042700030F80820084402803520626800EB850091
:104280001044DB4901606068C42101EB8501425A9A
:10429000392101EB850108440280C22101EB85012F
:1042A000606800E018E0425A3B2101EB85010844B8
:1042B0000280CF486168001F3D2202EB8502114455
:1042C000086044F620623946204602F0FDFB616832
:1042D000C62202EB8502885200200899012903D1E9
:1042E00039462046FFF774FD00287DD13946204627
:1042F00001F0B2F80028F8D11E223946204603F01A
:10430000E5F886B2EEB3F01D82B23946204603F0DE
:1043100031F9FC22616802EB8502885406F108003D
:1043200082B23946204603F025F9FD22616802EB8E
:104330008502885406F1090082B23946204603F00E
:1043400019F9FE22616802EB8502885406F10A0021
:1043500082B23946204603F00DF9FF22616802EB74
:104360008502885406F10D0082B23946204603F0DA
:1043700001F980070ED54FF4817101EB850160686A
:1043800000E02AE000F80190606890F80211491CF2
:1043900080F8021106F10E0082B23946204603F081
:1043A000E9F8014662684FF4807000EB850B22F853
:1043B0000B100F36B2B23946204603F0DBF8014647
:1043C000606830F80B2002EB012120F80B106068C8
:1043D000B0F800211144A0F800110A223946204605
:1043E00003F074F8002800E098E00BDD4FF48870CB
:1043F000616800EB8500014401233A46204603F042
:1044000027F910E00C21606801EB85014358082171
:1044100001EB850142584FF4887101EB8501084496
:1044200074A1FBF755FF39462046626C02F062FF2B
:10443000002849DD606C62688188312000EB8500CE
:1044400010440180606C4FF0330B61680BEB850208
:104450001144C0880880606C6268017A807A01EB40
:104460000041352000EB850010440160012621E069
:10447000606C8188606800EB8502312000EBC6002B
:10448000104401806168606C01EB85010BEBC60292
:104490001144C0880880606C017A807A01EB004189
:1044A000606800EB8502352000EBC6001044016017
:1044B000761CF6B2082E07D2334639462046626C87
:1044C00002F09CFF0028D3D139462046A26C02F0AE
:1044D000DDFD18B3A06CC078FF2804D0B922616854
:1044E00002EB85028854A06C0079FF2804D0BA2220
:1044F000616802EB85028854A06C4079FF2804D0E3
:10450000BB22616802EB85028854A06C8079FF2889
:1045100004D0BC22616802EB85028854616831F8DE
:104520000800E0B3312000EB850001440A88B2B9ED
:104530004FF480520A8080223321636801EB8501A9
:1045400019440A803522636802EB85021A4428491F
:1045500011607121626801EB850102F80190392137
:10456000626801EB850111440A88BAB94FF484529C
:104570000A8080223B21636801EB850119440A808F
:104580001B496268091F3D2303EB85031A44116030
:104590007221626801EB850102F801A000E00BE0E6
:1045A000626841F270711044CDE900011023DA0114
:1045B00020680699FEF722FD3946204600F066FC89
:1045C000606D40B941F27070009012231A012068AA
:1045D0000699FEF73FFD7F1CBFB2A0680068B84295
:1045E000BFF669AD039809B0BDE8F08F80841E0066
:1045F000260001003F204D3A25382E387820493AD0
:1046000025382E38780000002DE9F74F88B0044691
:1046100090460020039000260025A1680968002923
:104620007EDD61694145FBDD08EB8802216902EB13
:10463000481751F837A0CDF80CA0002104911C2098
:10464000226900EBC700079011522069222202EB79
:10465000C70281522069242202EBC70281524146DF
:104660002046FFF763FB4FF001094FF0040B39E0E0
:10467000C9EB0911606801EB8911B8F1000F06D090
:1046800040F2031202EB8102825C424526D11822DD
:1046900002EB8101405AF8B104A903A8CDE9000159
:1046A0000FFA89F3424620460999FFF7B4F90399B6
:1046B000A1EB0A008A46291840F2BA5291420CD95D
:1046C000216901EBC702282101EB860155503F2EDD
:1046D00004D2761CB6B2054600E00D4609F1010988
:1046E0001FFA89F9A06800684845C1DA9DF81000F2
:1046F000E0B1DDF80CA00AF1010ACDF80CA0002011
:104700000490681C40F2BA5188420ED9206900EB2F
:10471000C701282000EB86000D503F2E06D200E096
:10472000F2E0761CB6B2012500E06D1C082221697A
:1047300002EBC702099888502069039A50F8371095
:10474000521A0BEBC7010691425022690799701C5F
:10475000505220691E2101EBC701465220692021D9
:1047600001EBC7014552B8F1000F08D16168099803
:104770000862206903990068081A6168C8614FF0EF
:1047800001096AE0C9EB091101EB891B606804218A
:1047900001EB8B01415A0591B8F1000F06D040F2B0
:1047A000031101EB8B01415C414552D1262101EB04
:1047B0008B01405AF8B104A903A8CDE900010FFA12
:1047C00089F3424620460999FEF77BFF0399A1EB46
:1047D0000A008A46291840F2BA5291420CD921693E
:1047E00001EBC702282101EB860155503F2E04D270
:1047F000761CB6B2054600E00D464946204600F05C
:1048000045FB606D48B941F27070009004234FF48D
:10481000907220680599FEF71DFC4FF48171606865
:1048200001EB8B01405C30B11A21206901EBC7011B
:10483000425C521C42542069636818214FF4807C0A
:1048400001EBC7010CEB8B0C425A33F80C301A44C5
:10485000425209F101091FFA89F9A0680068484528
:1048600090DA9DF81000B8B10398401C0390002026
:104870000490681C40F2BA5188420CD9206900EBC0
:10488000C701282000EB86000D503F2E04D2761C75
:10489000B6B2012500E06D1C206900EBC70128209D
:1048A00000EB86000D5021690798761C0E52206996
:1048B0000699425809991144102202EBC70281500F
:1048C0002069039A50F83710521A06994158511A24
:1048D0000C2202EBC7028150B8F1000F0CD16068C6
:1048E0000999C2691144C162206903990068091AD3
:1048F0006068C269891A81622069039950F837009B
:10490000081A0BB0BDE8F08F0020FAE72DE9F04F50
:1049100097B00446002010900F90616881F8C9009C
:10492000216908750E904FF4FA600EA9CDE90010C8
:1049300004234FF4106200212068FEF76AFA6846EB
:1049400003F08EF8DDE90001CDE90501DDE9052080
:10495000FD4B0021E2FB03014FF47A72A0FB02360B
:1049600001FB0261002500FB0510CDE902300127A3
:1049700002E2C7EB071101EB8715CC21606801EB60
:1049800085011691425CCD2101EB85068255C92136
:10499000606801EB8501415C00297DD090F8C91069
:1049A00000297AD00F99C1EB011202EB8111E822A4
:1049B00002EB810147526268EA210F9801EB850101
:1049C0005052002010900F976068042101EB850180
:1049D000405A12904FF4FA6A0DF1380BCDE900BA43
:1049E00004234FF4106220681299FEF73EFAD42097
:1049F000626800EB85080E9942F808100DF1300945
:104A0000CDE9009A082340F6181220681299FEF7A3
:104A10002CFADDE90C23DDE90210891A60EB0300B2
:104A2000CDE90C10CDE9009A08234FF412622068FA
:104A30001299FEF7E3FACDE900BA042340F6041216
:104A400020681299FEF711FAD820626800EB8509F8
:104A50000E9942F80910CDE900BA042340F6081275
:104A600020681299FEF701FADC20626800EB8500ED
:104A70000E9915901150CDE900BA042340F60C129E
:104A800020681299FEF7F1F9E020616800EB8500DB
:104A90000E9B0B50002001E036E18CE06268169915
:104AA000515C5FEAC17C05D08DF82C0052F80800FB
:104AB000079001205FEA017C0BD50DF12C0C4FF023
:104AC00003080CF800800DF11C0C4CF82030401C41
:104AD00040B28B070BD50DF12C0C01230CF80030E4
:104AE00007AB52F809C043F820C0401C40B2490748
:104AF00009D50BA902230B541599535807A941F85E
:104B00002030401C40B20021012804DDDDE907C34C
:104B1000634500DA0121022807DD07ABDDF824C078
:104B200053F821309C4500DA0221032806DD07A84E
:104B30000A9B50F82100834200DA03210BA8405C55
:104B4000D12101EB8501149150546168012282400A
:104B50008B5D93438B553E46C9216068CE221196EA
:104B6000C6EB061303EB861302EB8303C65A46B16A
:104B7000C6EB061303EB861301EB8303C35C002B28
:104B8000EDD0002E7DD03146204601F007F90146D8
:104B9000D020626800EB850A02F80A10C6EB061105
:104BA00001EB86116068CB22139102EB8101415C1D
:104BB000012927D02DE0012280F8C9206068A0F8E3
:104BC000E87000216368EA2000EB8500195240F28A
:104BD0000310636800EB8501585C00EB800303EB76
:104BE0004010142303EBC00023691A546068405C32
:104BF00000EB800101EB4010162101EBC0002169A0
:104C00000F52DEE61399D12202EB8101415C00F8DC
:104C10000A104FF00008C1466068314610F80A20BB
:104C2000204601F00FF983466068314610F80A20EB
:104C3000204601F02DF902463146204601F002F9E6
:104C4000ABEB000BCB21606801EB8501415C0129D6
:104C500014D91499425C3946204601F019F90246EC
:104C60003946204601F0EEF88046616814980A5CE7
:104C70003946204601F0E6F8A8EB0008D84503DDE8
:104C800000E077E0C8F100081198801B012818DDCA
:104C90006068314610F80A20204601F0F9F8024613
:104CA0003146204601F0CEF8814613986268D12142
:104CB00001EB80003146125C204601F0C3F8A9EBFD
:104CC0000009B9F1000F01DAC9F100091399606810
:104CD000E42202EB810102EB85024358ABEB0801B1
:104CE00001EBD17109EB6101194481500E914FF430
:104CF000FA600EA9CDE90010042340F628122068BE
:104D00001299FEF77BF935E00021D42202EB8502EF
:104D10008150D820626800EB85001150DC20626869
:104D200000EB85001150E022606802EB85028150A3
:104D30006168CE2000EB8500085A68B1C0EB001214
:104D400002EB8012CB2301E040420F0003EB820212
:104D50008A5C022A00D91090109858B1CB2000EB41
:104D60008500085C012805D12046109901F016F84D
:104D7000002010907F1CBFB2A0680068B842BFF648
:104D8000F8AD606890F8C90017B0BDE8F08F2DE964
:104D9000FF4104460020039041F2707503AECDE957
:104DA0000065012340F2031200212068FEF731F86C
:104DB00011200390CDE900654FF4907701233A4626
:104DC00000212068FEF725F8CDE9006501233A4669
:104DD00000212068FEF71DF844F6206002A9CDE905
:104DE00000100022022311462068FDF7DCFF002896
:104DF00003DD402804DAA168086004B0BDE8F08152
:104E00006FF00300F9E72DE9FE4F0546012000246D
:104E1000C1EB011303EB8111FB236A6803EB8109EA
:104E200012F80930002B2FD0042000EB810032F85B
:104E300000A0022002904FF4FA674FF4A06802AE7F
:104E4000CDE900670123424651462868FEF7D6F8AF
:104E5000002803DC2046641C0328F0DB4FF0000B25
:104E6000CDF808B00024CDE9006701234246514641
:104E70002868FEF7C3F8002803DC2146641C0329D8
:104E8000F1DB696801F809B0BDE8FE8F2DE9FE4F3E
:104E9000054601200024C1EB011303EB8111FB2324
:104EA0006A6803EB8106935D002B1BD1042000EBA5
:104EB000810032F80090012702974FF4FA684FF40E
:104EC000A06A02A8CDE90008012352464946286895
:104ED000FEF794F8002803DC2146641C0329F0DB6C
:104EE00069688F55BDE8FE8F2DE9FF5F8B46074649
:104EF000144619460025002602A802F0F1FDA84636
:104F00004FF4FA6940F2025A6D1C012D02D0C820FC
:104F100002F018FEA4F80080CDE9004902235246B1
:104F200059463868FDF7A1FF2188002801DD0804F3
:104F300004D502A802F0ACFD0028E5D020880004CA
:104F400000D4012604B0B0B2BDE8F09F00B589B02E
:104F500003A900F047FF48B1DDE90701CDE90001F1
:104F600003A80FC800F006F809B000BD00A0FBE7D9
:104F7000000000000FB4F0B52DED028B89B0119840
:104F800004F03EFA9FED401B53EC112B04F0E0F8C7
:104F900041EC180B109804F033FA53EC182B04F082
:104FA0002FF841EC100B3AA153EC102B04A8FBF79F
:104FB0008FF99DF84F009DF84E60BDF84C40BDF84C
:104FC0005050BDF84A700A2850D2DFE800F00514AE
:104FD0004F1C264F4F4F35431498FDF7F9FD149998
:104FE000CDE90210CDE900463B4604AA2BA1384882
:104FF000FBF76EF940E03B4604AA36A13448009521
:10500000FBF766F938E0CDE901653B4604AA3AA111
:105010002F480094FBF75CF92EE01498FDF7D8FDBB
:105020001499CDE90210CDE900463B4604AA1BA124
:105030002748FBF74DF91FE02846FDF71BFE1499A2
:105040000290CDE900413B4604AA37A12048FBF776
:105050003FF911E02846FDF773FDCDE900503B46CE
:1050600004AA3CA11A48FBF733F905E004AA41A1C0
:105070001748149BFBF72CF909B01548BDEC028BBF
:10508000F0BC5DF814FB00000000000080842E419D
:1050900054696D653A2531322E33660025732053ED
:1050A000444F20736C6176653A256420696E6465AF
:1050B000783A25342E34782E25322E3278206572B7
:1050C000726F723A25382E38782025730A00000056
:1050D00048940020257320454D455247454E43597D
:1050E00020736C6176653A2564206572726F723A3E
:1050F00025342E34780A00002573205041434B4557
:105100005420736C6176653A256420696E64657815
:105110003A25342E34782E25322E3278206572725C
:105120006F723A25640A0000257320536F4520737F
:105130006C6176653A25642049444E3A25342E3414
:1051400078206572726F723A25342E347820257378
:105150000A0000002573204D425820736C6176656B
:105160003A2564206572726F723A25342E347820A5
:1051700025730A002573206572726F723A25382EE6
:1051800038780A0000200021044A02EB01135B6812
:105190001844491C0129F8DB70470000BC000020BE
:1051A00070B50546164EF068804705F50051D1F8F8
:1051B000D843641C022C00DB0024002004E0641CA3
:1051C000401C022C00DB002405EB8402D2F8FC2BEF
:1051D0000AB10228F3DB05EB84020120C2F8FC0BC4
:1051E000D1F8DC2332B140F6FC33D1F8E02303EBF5
:1051F0008403D050C1F8D84330698047204670BD41
:10520000880000202DE9F05F06460D469146B9F171
:10521000000F48D042F2E03084594FF0FF3840F29E
:10522000F7202169684301EB40074FF0040B022D82
:1052300004DA616951F82500032836D03448C06883
:1052400080474946304601F0BBFD58B36FF0010876
:10525000D4F80C9048F6A40002F080FCB9F80C10C9
:1052600088424ED1E1680E310888C0F30B0ACE782F
:10527000AE4228D1A06850F8252038460E3AFBF7F8
:1052800037FA07EB0A0117F80A00497800EB012802
:10529000606940F825B0B9F8080002F064FCA16923
:1052A00041F825002DE03446B7E77A78387802F0E7
:1052B0000F0200EB02203A5C3844407802EB0028F1
:1052C00041F825B020E0022E1BD2606950F826007C
:1052D000022816D140F2F7202269704302EB400009
:1052E000A26852F826200E3AFBF702FA6169032001
:1052F00041F82600B9F8080002F035FCA16941F830
:1053000026000348006980474046BDE8F09F000042
:10531000880000200068002201F042BE10B504465B
:105320000020A1680860E1684FF49E704143606806
:10533000FBF777FA61694FF4947041432069FBF7FA
:1053400070FA4FF480520021204602F013F9002138
:1053500008E001EB8103226903EB4113080442F8E2
:105360003300491C60698842F3DC10BD2DE9F04729
:1053700001296FD984682468002C6BDD0127C1EBFB
:10538000011404EB81144FF0080C46680CEB840503
:1053900056F8059000E07F1CC7EB071505EB871555
:1053A0000CEB850856F80880C84517D14FF00C085B
:1053B00008EB850A08EB840856F80AA056F808801E
:1053C000C2450BD14FF0100808EB850A08EB8408A2
:1053D00056F80AA056F80880C24501D08F42DADBA1
:1053E0008F4237DA00214FF0330C46680CEBC107CF
:1053F00006EB8508B84406EB84063E44B8F8008006
:10540000A6F80080476801F1710607EB850807EBF5
:10541000840718F8068007F80680491C0829E4DB91
:105420004668182101EB8507F65B1660476826265B
:1054300006EB85057D5B1D604568128801EB8401E4
:105440006A524068198806EB840281520120BDE847
:10545000F087FFE70020FAE72DE9F0410646012931
:105460007ED9B068006800287ADD0122C1EB011006
:1054700000EB81140823706803EB840550F805C025
:1054800000E0521CC2EB021505EB821503EB850709
:10549000C759674513D10C2707EB850807EB84072D
:1054A00050F80880C759B84509D1102707EB85087F
:1054B00007EB840750F80880C759B84501D08A42E5
:1054C000DFDB8A424CDAC2EB021101EB8212FC21D3
:1054D00001EB820201EB8401825C4254FD21706881
:1054E00001EB850201EB8401825C4254FE2170686D
:1054F00001EB850201EB8401825C4254FF2170685C
:1055000001EB850201EB8401825C42544FF481710E
:10551000706801EB8502825C4AB101EB84010122D3
:105520004254706890F80211491C80F802114FF43F
:105530008072706802EB850102EB8402415A81524D
:105540007068B0F800211144A0F800114FF488727F
:1055500002EB8501706802EB84020144104400E014
:1055600054E02922FBF709F90020312333274FF0BB
:10557000350C716803EBC00201EB8508904401EB28
:1055800084011144B8F80080A1F80080716807EB2D
:10559000C00201EB8508904401EB84011144B8F886
:1055A0000080A1F8008071680CEBC00201EB850857
:1055B000904401EB84011144D8F80080C1F80080C8
:1055C000401C0828D5DBB921706801EB850201EB8E
:1055D0008401825C4254BA21706801EB850201EBC0
:1055E0008401825C4254BB21706801EB850201EBAF
:1055F0008401825C4254BC21706801EB850201EB9E
:105600008401825C42540120BDE8F0810020FBE768
:105610002DE9FE4304460E4690463C4B022231469D
:10562000204602F0A0F8C6EB061000EB86154FF4FA
:105630008470616800EB85000B580BB130469847C9
:105640004FF48670616800EB85000B5813B131464A
:10565000204698476068F62101EB8501405A0028F2
:1056600050D102900190C620616800EB8507C85DAB
:10567000400715D50020FC2202EB8502895C8906D3
:1056800007D502A8009001AB42463146204601F002
:105690002DF928B902AB01AA3146204601F06EF877
:1056A000DDE90110084321D16068C05DC0061DD549
:1056B00002AB01AA3146204600F062FC0198C01DF1
:1056C000C11700EB5170C0084322616802EB8502EC
:1056D000114408800298C01DC11700EB5170C0082A
:1056E0004B22616802EB8502114408806168182230
:1056F000019802EB8502885261682622029802EB2B
:10570000850288520120BDE8FE83000080841E00CF
:105710002DE9F047ADF5426D04468A46CAEB0A1002
:1057200000EB8A156168182000EB850831F8080045
:10573000CDF8180C6168262000EB850931F80900C6
:10574000CDF81C0CDDF8181C084306D10DF61C43DF
:105750001A1F51462046FFF709FEDDF8181CDDF838
:105760001C0C084348D140F618416846FBF759F82D
:1057700000236A465146204601F0E6FCCDF81C0C99
:10578000002004226E46332706EB4001B1F8061CC8
:1057900071B1636807EBC00C03EB8503C91D63445B
:1057A000C9081980616801EB850300F171015A5441
:1057B000401C0828E8DB01236A465146204601F0D8
:1057C000C3FCCDF8180C0020032206EB4001B1F811
:1057D000061C71B1636807EBC00C03EB8503C91DA0
:1057E0006344C9081980616801EB850300F1710108
:1057F0005A54401C0828E8DB6168DDF8180C21F8D1
:1058000008006168DDF81C0C21F809000DF5426DF7
:105810000120BDE8F0872DE9FC5F0546C1EB0112D0
:1058200002EB81166868042101EB860130F801B0B3
:10583000BE2101EB8604015B4FF0310941F2707823
:105840004FF4006A00290CD109EB86010844018855
:1058500039B1CDE900080823524659462868FDF7BA
:10586000CDFB6868015B71B9392101EB8601084401
:10587000018841B1CDE90008082340F608025946E5
:105880002868FDF7BBFB02243527686809EBC401D3
:1058900000EB860042181288D2B1332202EBC40218
:1058A00002441288A2B307EBC4021044026842F417
:1058B000803202606868082300EB86000844CDE966
:1058C00000080AEBC40082B259462868FDF796FB2F
:1058D000641C082CD9DB6968262000EB8600085A76
:1058E000072805D9C01DC008282202EB860288506F
:1058F0006968182000EB8600085A072805D9C01DE2
:10590000C0081C2202EB860288500120BDE8FC9FE3
:10591000FFE707EBC4021044026822F48032026001
:10592000C8E72DE9F04788B00746DDE9119ADDF8B0
:1059300040800C4616461D46182102A8FAF771FF52
:10594000684602F08DF8DDE90001CDE90201ADF80D
:1059500012400021ADF814108DF8161001208DF8BA
:105960001700ADF818608DF81A508DF81B80ADF84F
:105970001C90ADF81EA002A9384600F0CCFA08B081
:10598000BDE8F0872DE9F04786B005460C4616467F
:10599000314603A802F0A4F8C4EB0411686801EBD7
:1059A0008411042202EB810130F8019000274FF4AA
:1059B000FA6840F6050A059705A8CDE90008012315
:1059C000524649462868FDF750FA04469DF81400EF
:1059D000000704D5C82E02DDC82002F0B3F8002C61
:1059E00003DD9DF81400000704D503A802F050F869
:1059F0000028E0D0002C07DD9DF81400000703D438
:105A0000012006B0BDE8F0870020FAE7F0B589B0C4
:105A100007460D461446182103A8FAF702FF01A80D
:105A200002F01EF8DDE90136CDE90336ADF8165077
:105A30000021ADF818108DF81A1009218DF81B10EF
:105A4000ADF81C4003A9384600F065FA09B0F0BD76
:105A50002DE9FF4F8BB005461646984600240C985A
:105A60006968C0EB001202EB8017042000EB87008E
:105A7000085A0890C22000EB8700085A099009983C
:105A800040F2CD51401E88427ED8414604A802F023
:105A900027F84FF4FA6A002007900DF11C09CDE9B0
:105AA000009A022340F60D0228680899FDF7DDF9F7
:105AB0000446BDF81C00000705D4B8F1C80F02DD8C
:105AC000C82002F03FF8002C03DDBDF81C000007E1
:105AD00004D404A801F0DCFF0028DCD0002C7CDD1D
