:020000040800F2
:10000000600600200D020008150200081702000813
:10001000190200081B0200081D0200080000000071
:100020000000000000000000000000001F020008A7
:100030002102000800000000230200082502000839
:1000400027020008270200082702000827020008EC
:1000500027020008270200082702000827020008DC
:1000600027020008270200082702000827020008CC
:1000700027020008270200082702000827020008BC
:1000800027020008270200082702000827020008AC
:10009000270200082702000827020008270200089C
:1000A000270200082702000827020008270200088C
:1000B000270200082702000827020008270200087C
:1000C000270200082702000827020008270200086C
:1000D0002702000827020008D103000827020008B1
:1000E000270200082702000827020008270200084C
:1000F000270200082702000827020008270200083C
:10010000270200082702000827020008270200082B
:10011000270200082702000827020008270200081B
:10012000270200082702000827020008270200080B
:1001300027020008270200082702000827020008FB
:1001400027020008270200082702000827020008EB
:1001500027020008270200082702000827020008DB
:1001600027020008270200082702000827020008CB
:1001700027020008270200082702000827020008BB
:10018000270200082702000800F002F800F02EF80D
:100190000AA090E8000C82448344AAF10107DA45E2
:1001A00001D100F023F8AFF2090EBAE80F0013F006
:1001B000010F18BFFB1A43F0010318479402000017
:1001C000A40200000023002400250026103A28BFC6
:1001D00078C1FBD8520728BF30C148BF0B607047B9
:1001E0001FB500F030F91FBD10B510BD00F033F899
:1001F0001146FFF7F5FF00F024F900F051F803B4C1
:10020000FFF7F2FF03BC00F01BF90000094880472C
:1002100009480047FEE7FEE7FEE7FEE7FEE7FEE7E8
:10022000FEE7FEE7FEE7FEE704480549054A064B00
:100230007047000075030008890100086000002075
:1002400060060020600200206002002070477047B6
:10025000704770477047754600F02CF8AE460500B1
:100260006946534620F00700854618B020B5FFF7D1
:10027000DBFFBDE820404FF000064FF000074FF0D5
:1002800000084FF0000B21F00701AC46ACE8C009B4
:10029000ACE8C009ACE8C009ACE8C0098D467047BD
:1002A00010B50446AFF300802046BDE81040FFF7CC
:1002B000A6BF000000487047000000200CB50022D7
:1002C000019200922749086840F4803008604FF49A
:1002D000A043086800F4003000900198401C019091
:1002E000009810B901989842F3D10868800302D5AC
:1002F0000120009000E000920098012831D11948B7
:100300004030026842F0805202601748026842F4AE
:10031000404202601348083002680260026842F4FA
:1003200000420260026842F4A0520260021F0F4BBA
:1003300013600A6842F080720A600A689201FCD574
:100340000B4A40F205711160016821F00301016060
:10035000016841F0020101600168C1F381010229D5
:10036000FAD10CBD0038024000700040195440071B
:10037000003C024010B51248016841F47001016070
:100380001048016841F0010101600E4A0021083265
:10039000116002680C4B1A400260031D0B4A1A6080
:1003A000026822F48022026006480C300160FFF7E8
:1003B00085FF03494FF000608039086010BD0000E0
:1003C00088ED00E000380240FFFFF6FE1030002408
:1003D00010B5074C40F22551204600F00DF80028DA
:1003E00005D0204600F028F8C0B20249888010BD30
:1003F000004400400010014070B5002440F66A122D
:10040000C1F3421301F01F05012606FA05F2012B84
:100410000CD0022B0DD0838A1340090A8E4000882D
:1004200030400BB100B10124204670BD83891340D8
:10043000F3E7038A1340F0E78088C0F308007047B1
:100440007047002070474FF04070E1EE100A70478F
:10045000600400080000002060060000C4010008DD
:040000050800018965
:00000001FF
