:020000040800F2
:1000000058070020290200083102000833020008C6
:10001000350200083702000839020008000000001D
:100020000000000000000000000000003B0200088B
:100030003D020008000000003F02000841020008E5
:10004000430200084302000843020008430200087C
:10005000430200084302000843020008430200086C
:10006000430200084302000843020008430200085C
:10007000430200084302000843020008430200084C
:10008000430200084302000843020008430200083C
:10009000430200084302000843020008430200082C
:1000A000430200084302000843020008430200081C
:1000B00049090008430200084302000843020008FF
:1000C00043020008430200084302000843020008FC
:1000D0004302000843020008C90A0008430200085E
:1000E000D902000843020008430200084302000846
:1000F00043020008430200084302000843020008CC
:1001000043020008430200084302000843020008BB
:1001100043020008430200084302000843020008AB
:10012000430200084302000843020008430200089B
:10013000430200084302000843020008430200088B
:10014000430200084302000843020008430200087B
:10015000430200084302000843020008430200086B
:10016000430200084302000843020008430200085B
:10017000430200084302000843020008430200084B
:10018000430200084302000800F002F800F03CF8C7
:100190000AA090E8000C82448344AAF10107DA45E2
:1001A00001D100F031F8AFF2090EBAE80F0013F0F8
:1001B000010F18BFFB1A43F001031847280D000078
:1001C000480D0000103A24BF78C878C1FAD8520709
:1001D00024BF30C830C144BF04680C6070470000C1
:1001E0000023002400250026103A28BF78C1FBD840
:1001F000520728BF30C148BF0B6070471FB500F0E1
:100200006BFE1FBD10B510BD00F033F81146FFF7AF
:10021000F5FF00F04BFE00F051F803B4FFF7F2FFDA
:1002200003BC00F003FE000009488047094800476E
:10023000FEE7FEE7FEE7FEE7FEE7FEE7FEE7FEE796
:10024000FEE7FEE704480549054A064B70470000F3
:10025000E108000889010008580100205807002023
:1002600058030020580300207047704770477047BC
:100270007047754600F02CF8AE46050069465346B7
:1002800020F00700854618B020B5FFF7DBFFBDE87A
:1002900020404FF000064FF000074FF000084FF0ED
:1002A000000B21F00701AC46ACE8C009ACE8C0097E
:1002B000ACE8C009ACE8C0098D46704710B50446EB
:1002C000AFF300802046BDE81040FFF7A6BF000056
:1002D00000487047F800002010B54FF4805000F03F
:1002E00011F830B14FF4805000F006F801200149B8
:1002F000087010BD2D000020014908607047000003
:10030000143C014001460020034A12680A400AB129
:10031000012000E000207047143C014000212349E7
:100320008279002A3AD00A46126803689A430B463B
:100330001A600A1D126803689A430B1D1A6002793D
:1003400011440A6803681A430A60184A083212689E
:1003500003689A43154B08331A601A1D1268036824
:100360009A43124B0C331A604279102A0ED11A1F8D
:10037000126803681A430D4B08331A601A1D12687D
:1003800003681A43094B0C331A600DE007494279A0
:1003900011440A6803681A430A6005E002791144AF
:1003A0000A6803689A430A6070470000003C0140F5
:1003B000F0B50A4600210023002400BF3DE00125DE
:1003C00005FA01F3156805EA03049C4234D1056877
:1003D0004F000326BE40B543056015794E00B54079
:1003E0000668354305601579012D02D01579022D77
:1003F00016D185684F000326BE40B5438560557908
:100400004E00B540866835438560456801268E40BC
:10041000B5434560456896798E40B6B23543456030
:10042000C5684F000326BE40B543C560D5794E0070
:10043000B540C6683543C560491C1029BFD3F0BD1F
:10044000F0B5002300244D07ED0E02FA05F3CE109F
:1004500000F1200555F826504E07F70E0F26BE4036
:10046000B543CF1000F1200646F82750CE1000F11A
:10047000200555F8265045EA0304CE1000F120056A
:1004800045F82640F0BD4183704701837047000066
:100490001CB501208DF8040000208DF80600012015
:1004A000009003208DF8050002208DF8070001213F
:1004B000084600F04DF869460148FFF779FF1CBD7A
:1004C0000000024070B5002100230F22C4781CB345
:1004D000174C246804F4E064C4F5E064C4F3072115
:1004E000C1F10404E3B20A4144789C40E1B284784B
:1004F000144021430C07210E0E4C057861550478F9
:1005000004F01F050124AC4005786D11AD0005F124
:10051000E025C5F8004109E0047804F01F05012436
:10052000AC40054D0678761145F8264070BD0000B8
:100530000CED00E000E400E080E100E0024901434E
:10054000024A1160704700000000FA050CED00E05F
:1005500029B1064A12680243044B1A6004E0034AB8
:1005600012688243014B1A60704700003038024025
:1005700029B1064A12680243044B1A6004E0034A98
:1005800012688243014B1A607047000040380240F5
:1005900029B1064A12680243044B1A6004E0034A78
:1005A00012688243014B1A607047000044380240D1
:1005B00070B5044600254FF400510A48FFF763FF69
:1005C000204600F02DF8012000F00EF8002000F089
:1005D0000BF805464FF400510248FFF756FF284636
:1005E00070BD00000014024010B5044600BF022197
:1005F0000A4800F0B3F80028F9D02146074800F077
:10060000B9F800BF0121054800F0A8F80028F9D08A
:10061000024800F0ACF8C0B210BD0000003C004041
:1006200070B504462546E11704EB1161C1F30720BC
:10063000FFF7DAFFE0B2FFF7D7FF70BD21B1028804
:1006400042F04002028004E002884FF6BF731A4075
:100650000280704700B587B001210420FFF778FFC2
:1006600001212020FFF774FF0121C803FFF780FF5D
:1006700006220A213648FFF7E3FE06220B21344802
:10068000FFF7DEFE06220C213148FFF7D9FE0220DB
:100690008DF8180000208DF81A004FF48060059046
:1006A00002208DF81B0003208DF8190005A92848A9
:1006B000FFF77EFE02208DF8180000208DF81A004A
:1006C0004FF4C050059001208DF81B0003208DF8D9
:1006D000190005A91E48FFF76BFE01208DF81800D0
:1006E00000208DF81A004FF40050059001208DF87D
:1006F0001B0003208DF8190005A91648FFF758FEC6
:100700004FF400511348FFF7C0FE0020ADF80C0075
:10071000ADF80800ADF806000720ADF81000002085
:10072000ADF80400ADF80000ADF80E004FF4827093
:10073000ADF802004FF40070ADF80A0069460648B3
:1007400000F01AF801210448FFF778FF07B000BD58
:100750000008024000140240003C00400246002015
:1007600013890B400BB1012000E0002070470146C7
:10077000888970478181704710B50022028802F491
:1007800041520B884C8823438C882343CC882343D5
:100790000C8923434C8923438C892343CC892343ED
:1007A0001A430280838B4FF2FF74234083830B8AAA
:1007B000038210BD30B500228B071C0F0F2303FAF4
:1007C00004F20B4B8C1053F824309343084C8D10DB
:1007D00044F8253023468C1053F824308C07240F1E
:1007E00000FA04F42343024C8D1044F8253030BD48
:1007F000083801400CB50020019000903448006892
:1008000040F480303249086000BF3148006800F48D
:10081000003000900198401C0190009818B9019890
:10082000B0F5A04FF1D12A48006800F4003010B1B3
:100830000120009001E0002000900098012846D19E
:1008400023484030006840F0805021494031086022
:100850002048006840F440401E4908601C480830A9
:1008600000681B49083108600846006840F40040F1
:1008700008600846006840F4A05008601648091F48
:100880000860081F006840F08070091F086000BF02
:100890000F48006800F000700028F9D040F20570A1
:1008A0000E4908600A480830006820F00300084933
:1008B000083108600846006840F00200086000BF88
:1008C00003480830006800F00C000828F8D10CBD7F
:1008D000003802400070004019544007003C0240BC
:1008E00010B51548006840F47000134908601348BB
:1008F000006840F001001149086000200F490831EC
:1009000008600E4800680E4908400C4908600D4810
:10091000091D0860081F006820F48020091F086076
:10092000002006490C310860FFF764FF4FF00060BB
:1009300001498039086010BD88ED00E000380240B0
:10094000FFFFF6FE1030002410B50121880700F0EB
:100950002AF8012808D10121800700F00CF803488B
:100960000068401C0149086010BD00000000002024
:10097000CA4302827047CA430282704721B102888B
:1009800042F00102028004E002884FF6FE731A4032
:100990000280704702460020138A0B400BB10120F1
:1009A00000E00020704730B50246002000230024FC
:1009B000158A05EA0103958905EA010413B10CB112
:1009C000012000E0002030BD1AB183890B438381F0
:1009D00002E083898B4383817047000000220288F4
:1009E000184B98420ED0184B98420BD0B0F1804F64
:1009F00008D0164B984205D0154B984202D0154BA3
:100A0000984204D14FF68F731A404B881A43124B09
:100A1000984207D0114B984204D04FF6FF431A403A
:100A20000B891A4302804B68C3620B880385054B10
:100A3000984202D0044B984201D18B7A038601235D
:100A40008382704700000140000401400004004020
:100A500000080040000C004000100040001400405E
:100A60001FB501210846FFF783FD0920029042F2DD
:100A7000CF00ADF804000020ADF80C00ADF8060082
:100A80008DF80E0001A94FF08040FFF7A7FF01226B
:100A900011469007FFF798FF4FF4A060FFF74EFD57
:100AA0001C208DF8000001208DF8030002208DF835
:100AB000010001208DF802006846FFF703FD0121C7
:100AC0008807FFF75BFF1FBD10B540F225511D4899
:100AD00000F03EF810B31B4800F064F8C4B21A48A6
:100AE000008800F40040C8B91748008800F480402E
:100AF00060B10A2C03D000201349088020E012487E
:100B0000008840F400401049088019E00D2C06D1FF
:100B10000D48008840F480400B49088010E00A48E6
:100B20000088C0F30D0009490C5407480088401C98
:100B30000549088008460088C72801DD0020088094
:100B400010BD0000004400400800002030000020DC
:100B500070B50246002400230025002040F66A16E6
:100B6000B14200D100BFC1F3421501F01F030126BD
:100B700006FA03F3012D02D19689334006E0022DD7
:100B800002D1168A334001E0968A33400C120126C6
:100B900006FA04F41688344013B10CB1012000E0C9
:100BA000002070BD01468888C0F30800704700002F
:100BB00000B585B001212020FFF7CAFC0121C80340
:100BC000FFF7E6FC01218803FFF7E2FC01208DF826
:100BD000100000208DF812004FF4006003900120F7
:100BE0008DF8130003208DF8110003A92048FFF7AA
:100BF000DFFB4FF400611E48FFF747FC00208DF833
:100C000010008DF812004FF48050039001208DF8F1
:100C1000130003208DF8110003A91548FFF7C8FB46
:100C20000C210520FFF7C6FD4FF4805001900020F5
:100C30008DF808000C208DF8090001208DF80A00BD
:100C400001A8FFF76BFB4FF4A060FFF777FC2820AB
:100C50008DF8000000208DF801008DF802000120C1
:100C60008DF803006846FFF72DFC05B000BD0000BD
:100C70000014024010B54FF400610B48FFF703FC6D
:100C8000322000F0F1F84FF400610748FFF7FDFB58
:100C9000C82000F0E9F800BF2E20FFF789FC00F023
:100CA00001000028F8D010BD0014024070B50024E7
:100CB00099253920FFF77CFC05468021002000F0B3
:100CC0003DF80A2000F0D0F804221649012000F077
:100CD00089F804221449052000F084F806221349FB
:100CE000092000F07FF8042211490F2000F07AF863
:100CF00000BF0BE002221E21204600F053F8022222
:100D00001F21204600F04EF8601CC4B2082CF1DB15
:100D10004FF4FA61192000F02BF808211B2000F095
:100D20000DF870BD0A0000200E0000201200002007
:100D30001800002010B5FFF7B9FF10BD70B50546CB
:100D40000C464FF400510948FFF79DFB2846FFF77A
:100D500067FC0520FFF748FC2046FFF745FC4FF4F1
:100D600000510248FFF791FB70BD000000140240E3
:100D700070B505460C464FF400510948FFF783FB58
:100D80002846FFF74DFC0620FFF72EFC2046FFF714
:100D900047FC4FF400510248FFF777FB70BD00009D
:100DA0000014024070B504460D4616464FF400513B
:100DB0000B48FFF768FB2846FFF732FC082101EBE0
:100DC0004411C9B241F00500FFF70EFC3046FFF7B1
:100DD0000BFC4FF400510248FFF757FB70BD0000B9
:100DE000001402402DE9F04107460C4615464FF429
:100DF00000510D48FFF747FB3846FFF711FC042070
:100E0000FFF7F2FB002605E014F8010BFFF7ECFBFF
:100E1000701C86B2AE42F7DB4FF400510248FFF778
:100E200034FBBDE8F08100000014024000BF7047B1
:100E30000EB501210420FFF79BFB532001900020F9
:100E4000ADF80000ADF80800ADF802008DF80A001A
:100E500069460448FFF7C2FD01218807FFF788FDB6
:100E60000EBD00000008004070B504464FF47A70D3
:100E700004FB00F501210C48FFF780FD0AE000BFEC
:100E800001210948FFF786FD0028F9D00121064815
:100E9000FFF76EFD281EA5F10105F0D100210248E3
:100EA000FFF76CFD70BD000000080040FFF7D8FDA3
:100EB000FFF7BEFFFFF7CEFBFFF77AFEFFF7DAFE84
:100EC000FFF738FFFFF7E4FA01210248FFF7DDFAE8
:100ED00000BFFEE7000002404FF04070E1EE100A54
:100EE00070470000040F00080000002030000000E0
:100EF000C4010008340F000830000020280700005B
:100F0000E001000800000000000000000000C0A890
:100F10000101FFFFFF000008DC010203C0A801C7B8
:100F20001E40C0A801BE1F400000000000000000DD
:040F300000000000BD
:040000050800018965
:00000001FF
