:020000040800F2
:10000000900F002029020008310200083302000886
:10001000350200083702000839020008000000001D
:100020000000000000000000000000003B0200088B
:100030003D020008000000003F02000841020008E5
:10004000430200084302000843020008430200087C
:10005000430200084302000843020008430200086C
:10006000430200084302000843020008430200085C
:10007000430200084302000843020008430200084C
:10008000430200084302000843020008430200083C
:10009000430200084302000843020008430200082C
:1000A000430200084302000843020008430200081C
:1000B0008D090008430200084302000843020008BB
:1000C00043020008430200084302000843020008FC
:1000D00043020008430200080D0B00084302000819
:1000E000D902000843020008430200084302000846
:1000F00043020008430200084302000843020008CC
:1001000043020008430200084302000843020008BB
:1001100043020008430200084302000843020008AB
:10012000430200084302000843020008430200089B
:10013000430200084302000843020008430200088B
:10014000430200084302000843020008430200087B
:10015000430200084302000843020008430200086B
:10016000430200084302000843020008430200085B
:10017000430200084302000843020008430200084B
:10018000430200084302000800F002F800F03CF8C7
:100190000AA090E8000C82448344AAF10107DA45E2
:1001A00001D100F031F8AFF2090EBAE80F0013F0F8
:1001B000010F18BFFB1A43F001031847BC1B0000D6
:1001C000DC1B0000103A24BF78C878C1FAD8520767
:1001D00024BF30C830C144BF04680C6070470000C1
:1001E0000023002400250026103A28BF78C1FBD840
:1001F000520728BF30C148BF0B6070471FB501F0E0
:10020000B5FD1FBD10B510BD00F033F81146FFF766
:10021000F5FF01F0CDF800F051F803B4FFF7F2FF5D
:1002200003BC00F061FE0000094880470948004710
:10023000FEE7FEE7FEE7FEE7FEE7FEE7FEE7FEE796
:10024000FEE7FEE704480549054A064B70470000F3
:10025000250900088901000890090020900F00205E
:10026000900B0020900B002070477047704770473C
:100270007047754600F02CF8AE46050069465346B7
:1002800020F00700854618B020B5FFF7DBFFBDE87A
:1002900020404FF000064FF000074FF000084FF0ED
:1002A000000B21F00701AC46ACE8C009ACE8C0097E
:1002B000ACE8C009ACE8C0098D46704710B50446EB
:1002C000AFF300802046BDE81040FFF7A6BF000056
:1002D000004870472C09002010B54FF4805000F002
:1002E0000DF818B14FF4805000F002F810BD000076
:1002F0000149086070470000143C0140014600209D
:10030000034A12680A400AB1012000E00020704749
:10031000143C0140002123498279002A3AD00A4640
:10032000126803689A430B461A600A1D1268036834
:100330009A430B1D1A60027911440A6803681A4334
:100340000A60184A0832126803689A43154B08334A
:100350001A601A1D126803689A43124B0C331A6014
:100360004279102A0ED11A1F126803681A430D4BE6
:1003700008331A601A1D126803681A43094B0C33BC
:100380001A600DE00749427911440A6803681A436C
:100390000A6005E0027911440A6803689A430A601A
:1003A00070470000003C0140F0B50A4600210023E0
:1003B000002400BF3DE0012505FA01F3156805EAB8
:1003C00003049C4234D105684F000326BE40B54368
:1003D000056015794E00B54006683543056015790E
:1003E000012D02D01579022D16D185684F00032604
:1003F000BE40B543856055794E00B54086683543AB
:100400008560456801268E40B5434560456896790C
:100410008E40B6B235434560C5684F000326BE40E6
:10042000B543C560D5794E00B540C6683543C56053
:10043000491C1029BFD3F0BDF0B5002300244D079F
:10044000ED0E02FA05F3CE1000F1200555F8265006
:100450004E07F70E0F26BE40B543CF1000F1200621
:1004600046F82750CE1000F1200555F8265045EAF1
:100470000304CE1000F1200545F82640F0BD41836D
:1004800070470183704700001CB501208DF80400FF
:1004900000208DF806000120009003208DF8050053
:1004A00002208DF807000121084600F04DF869464A
:1004B0000148FFF779FF1CBD0000024070B5002124
:1004C00000230F22C4781CB3174C246804F4E064A2
:1004D000C4F5E064C4F30721C1F10404E3B20A41A6
:1004E00044789C40E1B28478144021430C07210EEB
:1004F0000E4C05786155047804F01F050124AC40CA
:1005000005786D11AD0005F1E025C5F8004109E061
:10051000047804F01F050124AC40054D06787611DF
:1005200045F8264070BD00000CED00E000E400E05E
:1005300080E100E002490143024A11607047000077
:100540000000FA050CED00E029B1064A12680243EA
:10055000044B1A6004E0034A12688243014B1A609C
:10056000704700003038024029B1064A1268024341
:10057000044B1A6004E0034A12688243014B1A607C
:10058000704700004038024029B1064A1268024311
:10059000044B1A6004E0034A12688243014B1A605C
:1005A000704700004438024010B54FF40051024833
:1005B000FFF767FF10BD00000014024010B54FF4B4
:1005C00000510248FFF75BFF10BD0000001402401D
:1005D00010B500BF02210A4800F0C8F80028F9D081
:1005E000FF21074800F0CEF800BF0121044800F0C9
:1005F000BDF80028F9D0024800F0C1F8C0B210BD23
:10060000003C004010B5044600BF0221094800F03C
:10061000ADF80028F9D02146064800F0B3F800BF35
:100620000121044800F0A2F80028F9D0014800F0A8
:10063000A6F810BD003C004021B1028842F0400203
:10064000028004E002884FF6BF731A4002807047B0
:1006500000B587B001210420FFF776FF012120209B
:10066000FFF772FF0121C803FFF77EFF06220A2170
:100670003648FFF7E1FE06220B213448FFF7DCFE87
:1006800006220C213148FFF7D7FE02208DF8180012
:1006900000208DF81A004FF48060059002208DF83C
:1006A0001B0003208DF8190005A92848FFF77CFEE0
:1006B00002208DF8180000208DF81A004FF4C05069
:1006C000059001208DF81B0003208DF8190005A965
:1006D0001E48FFF769FE01208DF8180000208DF8F4
:1006E0001A004FF40050059001208DF81B000320E4
:1006F0008DF8190005A91648FFF756FE4FF4005172
:100700001348FFF7BEFE0020ADF80C00ADF808005E
:10071000ADF806000720ADF810000020ADF8040089
:10072000ADF80000ADF80E004FF48270ADF8020095
:100730004FF40070ADF80A006946064800F024F84E
:1007400001210448FFF778FF07B000BD0008024010
:1007500000140240003C0040012080F3108800BFDC
:100760007047002080F3108800BF704702460020C9
:1007700013890B400BB1012000E0002070470146B7
:10078000888970478181704710B50022028802F481
:1007900041520B884C8823438C882343CC882343C5
:1007A0000C8923434C8923438C892343CC892343DD
:1007B0001A430280838B4FF2FF74234083830B8A9A
:1007C000038210BD30B500228B071C0F0F2303FAE4
:1007D00004F20B4B8C1053F824309343084C8D10CB
:1007E00044F8253023468C1053F824308C07240F0E
:1007F00000FA04F42343024C8D1044F8253030BD38
:10080000083801400CB50020019000903448006881
:1008100040F480303249086000BF3148006800F47D
:10082000003000900198401C0190009818B9019880
:10083000B0F5A04FF1D12A48006800F4003010B1A3
:100840000120009001E0002000900098012846D18E
:1008500023484030006840F0805021494031086012
:100860002048006840F440401E4908601C48083099
:1008700000681B49083108600846006840F40040E1
:1008800008600846006840F4A05008601648091F38
:100890000860081F006840F08070091F086000BFF2
:1008A0000F48006800F000700028F9D040F2057091
:1008B0000E4908600A480830006820F00300084923
:1008C000083108600846006840F00200086000BF78
:1008D00003480830006800F00C000828F8D10CBD6F
:1008E000003802400070004019544007003C0240AC
:1008F00070B505460E46002403E0FFF769FE285553
:10090000641CB442F9DB70BD70B504460D46002688
:1009100004E014F8010BFFF775FE761CAE42F8DB1D
:1009200070BD000010B51548006840F47000134910
:1009300008601348006840F0010011490860002079
:100940000F49083108600E4800680E4908400C49FC
:1009500008600D48091D0860081F006820F4802009
:10096000091F0860002006490C310860FFF74AFFA4
:100970004FF0006001498039086010BD88ED00E04B
:1009800000380240FFFFF6FE1030002410B50121B0
:10099000880700F02AF8012808D10121800700F01B
:1009A0000CF803480068401C0149086010BD0000B5
:1009B00008000020CA4302827047CA43028270477F
:1009C00021B1028842F00102028004E002884FF661
:1009D000FE731A400280704702460020138A0B40C3
:1009E0000BB1012000E00020704730B50246002026
:1009F00000230024158A05EA0103958905EA01040C
:100A000013B10CB1012000E0002030BD1AB1838980
:100A10000B43838102E083898B438381704700000D
:100A200000220288184B98420ED0184B98420BD0E7
:100A3000B0F1804F08D0164B984205D0154B984224
:100A400002D0154B984204D14FF68F731A404B8851
:100A50001A43124B984207D0114B984204D04FF6DC
:100A6000FF431A400B891A4302804B68C3620B880C
:100A70000385054B984202D0044B984201D18B7AF2
:100A80000386012383827047000001400004014077
:100A90000004004000080040000C0040001000402E
:100AA000001400401FB501210846FFF75DFD092035
:100AB000029042F2CF00ADF804000020ADF80C0027
:100AC000ADF806008DF80E0001A94FF08040FFF749
:100AD000A7FF012211469007FFF798FF4FF4A0608F
:100AE000FFF728FD1C208DF8000001208DF8030081
:100AF00002208DF8010001208DF802006846FFF702
:100B0000DDFC01218807FFF75BFF1FBD10B540F238
:100B100025511D4800F03EF810B31B4800F064F862
:100B2000C4B21A48008800F40040C8B917480088C9
:100B300000F4804060B10A2C03D0002013490880E3
:100B400020E01248008840F400401049088019E075
:100B50000D2C06D10D48008840F480400B490880D8
:100B600010E00A480088C0F30D0009490C540748FA
:100B70000088401C0549088008460088C72801DD18
:100B80000020088010BD000000440040100000203C
:100B90005408002070B502460024002300250020E0
:100BA00040F66A16B14200D100BFC1F3421501F010
:100BB0001F03012606FA03F3012D02D19689334063
:100BC00006E0022D02D1168A334001E0968A3340B6
:100BD0000C12012606FA04F41688344013B10CB145
:100BE000012000E0002070BD01468888C0F30800A5
:100BF0007047000000B585B001212020FFF7A4FC5C
:100C00000121C803FFF7C0FC01218803FFF7BCFCEA
:100C100001208DF8100000208DF812004FF40060C4
:100C2000039001208DF8130003208DF8110003A913
:100C30002048FFF7B9FB4FF400611E48FFF721FC85
:100C400000208DF810008DF812004FF480500390B2
:100C500001208DF8130003208DF8110003A9154819
:100C6000FFF7A2FB0C210520FFF7ACFD4FF48050ED
:100C7000019000208DF808000C208DF8090001205B
:100C80008DF80A0001A8FFF745FB4FF4A060FFF7BD
:100C900051FC28208DF8000000208DF801008DF80F
:100CA000020001208DF803006846FFF707FC05B03D
:100CB00000BD00000014024010B54FF400610A4866
:100CC000FFF7DDFB322000F07DF94FF400610648AC
:100CD000FFF7D7FBC82000F075F900BF00F0F4FF64
:100CE0000128FBD110BD00000014024038B50446B5
:100CF0001A49C868804719494869804700BF1748A2
:100D0000406A10B11548806A70B91448016AC4F38A
:100D1000074088471148016AC4F307208847E0B2BA
:100D20000E4A116A88470DE0200C8DF80000200A59
:100D30008DF80100E0B28DF8020008480321826AB4
:100D4000684690470549C869804705460349886950
:100D50008047024908698047284638BD20000020A6
:100D6000F8B504460E4617461F49C86880471E4915
:100D70004869804700BF1C48406A10B11A48806A21
:100D8000C0B91948016AC4F3074088471648016A88
:100D9000C4F307208847E0B2134A116A8847002548
:100DA00005E01149C86980477055681C85B2BD428D
:100DB000F7DB12E0200C8DF80000200A8DF801000E
:100DC000E0B28DF8020008480321826A6846904725
:100DD00005483946426A304690470349886980474A
:100DE000014908698047F8BD2000002038B5044655
:100DF0000D461A49C868804718494869804744F039
:100E000004041648806A90B91448016AC4F3074084
:100E100088471248016AC4F307208847E0B20F4AA6
:100E2000116A88470D48016A284688470FE0200C60
:100E30008DF80000200A8DF80100E0B28DF8020064
:100E40008DF8035005480421826A6846904703499B
:100E50008869804701490869804738BD2000002023
:100E6000F8B504460E4617461E49C86880471D4916
:100E70004869804744F004041A48806AC0B9194898
:100E8000016AC4F3074088471648016AC4F3072083
:100E90008847E0B2134A116A8847002505E0705D73
:100EA000104A116A8847681C85B2BD42F7DB12E020
:100EB000200C8DF80000200A8DF80100E0B28DF8BA
:100EC000020008480321826A68469047054839466F
:100ED000826A30469047034988698047014908691A
:100EE0008047F8BD2000002000BF704710B50446C1
:100EF00000BF082C02DD4FF0FF3010BD00BFA10085
:100F0000491C4FF4807202EBC1001021FFF76EFF05
:100F100000BFA100491C4FF4807202EBC100FFF733
:100F2000E5FE0028F5D1A100491C4FF4007202EB48
:100F3000C1001F21FFF75AFF0120A0400F49098877
:100F400081430E4801800120A0400D49098881435A
:100F50000B48018000200B4921F814000A4908556C
:100F600000BFA100491C4FF4407202EBC100FFF723
:100F7000BDFE0028F5D10120BFE7000014000020CD
:100F8000160000201C090020180000200EB50121C9
:100F90000420FFF7E9FA532001900020ADF800008B
:100FA000ADF80800ADF802008DF80A006946044863
:100FB000FFF736FD01218807FFF7FCFC0EBD00009E
:100FC0000008004070B504464FF47A7004FB00F549
:100FD00001210C48FFF7F4FC0AE000BF0121094899
:100FE000FFF7FAFC0028F9D001210648FFF7E2FCE0
:100FF000281EA5F10105F0D100210248FFF7E0FC11
:1010000070BD00000008004010B5044600BF082C69
:1010100002DD4FF0FF3010BD00BF00BFA100491C32
:10102000002202EBC100FFF761FE00F00F00012873
:1010300002D06FF00400EEE700BFA100491C4FF49E
:10104000807202EBC1000821FFF7D0FE00BFA100B3
:10105000491C4FF4807202EBC100FFF747FE0028E5
:10106000F5D10120A040154909888143134801802A
:101070000120A04012490988084008B10020CAE7B1
:1010800010E0A100491C4FF4007202EBC100FFF711
:101090002DFE00F0080028B12046FFF727FF6FF073
:1010A0000C00B8E7A100491C4FF4407202EBC100EC
:1010B000FFF71CFE0028E4D10120ACE71600002059
:1010C0001400002070B504460025002600BFA100D2
:1010D000491C4FF4185202EBC100FFF707FE064609
:1010E000A100491C4FF4185202EBC10101F58070B8
:1010F000FFF7FCFD00EB062086B2AEB1A100491C53
:101100004FF4185202EBC100FFF7F0FD0546A100B5
:10111000491C4FF4185202EBC10101F58070FFF732
:10112000E5FD00EB052085B2B542D0D1284670BD63
:1011300070B504460025002600BFA100491C4FF4ED
:10114000005202EBC100FFF7D1FD0646A100491C89
:101150004FF4005202EBC10101F58070FFF7C6FDAC
:1011600000EB062086B2AEB1A100491C4FF400523C
:1011700002EBC100FFF7BAFD0546A100491C4FF480
:10118000005202EBC10101F58070FFF7AFFD00EBEB
:10119000052085B2B542D0D1284670BD10B50446B1
:1011A00000BF082C02DD4FF0FF3010BD00BF00BFB4
:1011B000A100491C002202EBC100FFF797FD00F0DF
:1011C0000F00012802D06FF00400EEE700BF00BF5F
:1011D000A100491C4FF4407202EBC100FFF786FDED
:1011E000132802D06FF00200DFE700BFA100491C06
:1011F0004FF4807202EBC1000221FFF7F7FD00BF40
:10120000A100491C4FF4807202EBC100FFF76EFD94
:101210000028F5D105E02046FFF768FE6FF00300D7
:10122000C3E7A100491C4FF4407202EBC100FFF775
:101230005DFD1428EFD10120B7E700002DE9F84F3C
:1012400005468846914600260027A900491C4FF410
:10125000407202EBC100FFF749FD162873D004DC91
:10126000002871D0132870D17DE0172802D01C28E7
:10127000F9D16BE001214D48FFF703F94FF47A7083
:10128000FFF7A0FEA900491C4FF4007202EBC10059
:10129000FFF72CFD00F0010048B3A900491C4FF4F2
:1012A000406202EBC10004226946FFF759FDA90024
:1012B000491C4FF4805202EBC10101F58070FFF729
:1012C00015FD8346A900491C4FF4805202EBC10072
:1012D000FFF70CFD0BEB00201FFA80FAA900491C58
:1012E0004FF4007202EBC1000121FFF77FFD284699
:1012F000FFF7E8FE061E25DDB6F5006F01DD4FF4B1
:10130000006632464146284600F074F80446002C38
:1013100002DC2046BDE8F88FA6B2002710E0F01BE3
:1013200082B208EB0701284600F050F90446002C71
:1013300004DA2846FFF7DAFD2046EBE7381987B2D2
:10134000BE42ECD12EE02BE01EE02AE0012117483E
:10135000FFF797F82846FFF757FE0446012801D00B
:101360002046D7E71EE001211048FFF788F84FF428
:101370007A70FFF727FE2846FFF710FF0446012882
:1013800001D02046C6E70DE000234A460121284649
:1013900000F0DCF90446A84201D02046BAE701E09B
:1013A00000E000BF00BF0120B4E7000000000240E1
:1013B000FFF778FBFFF7EAFDFFF74AF9FFF71AFCA2
:1013C00000F094FAFFF760F801210748FFF759F899
:1013D0004FF47A70FFF7F6FD05E0044802880449EF
:1013E0000020FFF72BFFF8E7000002400400002078
:1013F000540000202DE9F047044688461646002791
:10140000002500BF082C02DD681EBDE8F08700BF84
:1014100000BFA100491C002202EBC100FFF766FCDF
:1014200000F00F00012802D06FF00400EDE700BFCC
:1014300000BF16B96FF00D00E7E700BFA100491C1F
:101440004FF4F05202EBC100FFF750FC4FF6FF7172
:1014500001EA8025B54200DA2E4638E02046FFF743
:1014600031FE0546A100491C4FF4407202EBC10059
:10147000FFF73CFC0746172F1ED01C2F16D105B1D5
:1014800026E02046FFF754FE8146A100491C4FF498
:10149000F85202EBC100FFF729FCB9EB802F0BD10A
:1014A0002046FFF723FD6FF00600AEE72046FFF76A
:1014B0001DFD6FF00600A8E70120A040144909882F
:1014C000084010B10DB900209FE705B100E0C5E765
:1014D00000BFB54200DA2E4632464146204600F0B3
:1014E00085FAA100491C4FF4807202EBC100402133
:1014F000FFF77CFC00BFA100491C4FF4807202EB97
:10150000C100FFF7F3FB0028F5D130467DE700006E
:101510001400002000B131B9054A064BDA60064BD1
:10152000044A136102E0034AD06011617047000071
:10153000FF1A000820000020011B000800B131B98B
:10154000054A064B5A61064B044A936102E0034A7E
:101550005061916170470000051B000820000020C9
:10156000031B000800BF094A128802F40072002A17
:10157000F9D000B131B9064A044BDA61054B034A90
:10158000136202E0014AD06111627047200000201E
:101590004F1C0008551C000800BF094A128802F4BD
:1015A0000072002AF9D000B129B9064B044A5362EF
:1015B000054B936202E0024A50629162704700005C
:1015C000200000204D1C0008531C00082DE9F041AC
:1015D0000446884615460026002700BF082C02DD79
:1015E000701EBDE8F08100BF00BFA100491C0022B1
:1015F00002EBC100FFF77AFB00F00F00012802D0D8
:101600006FF00400EDE700BF00BF15B96FF00D00EB
:10161000E7E700BFA100491C4FF4407202EBC10094
:10162000FFF764FB0646172E04D01C2E02D06FF085
:101630000600D6E70120A04042490988084040B38F
:10164000A100491C4FF4007202EBC100FFF74EFBF2
:1016500000F01F0606F0100080B1A100491C4FF4F5
:10166000007202EBC1001021FFF7C0FB0120A04077
:10167000344909888143334801800AE006F00800B4
:1016800028B12046FFF732FC6FF00C00A9E70020DC
:10169000A7E7A100491C4FF4F85202EBC100FFF785
:1016A00025FB4FF6FF7101EA8027BD4200DD3D4674
:1016B00023E02046FFF73CFD0746A100491C4FF4FC
:1016C000407202EBC100FFF711FB0646172E07D050
:1016D0001C2E05D02046FFF709FC6FF0060080E7BE
:1016E0000120A04018490988084018B1BD4201DD19
:1016F000002076E7BD4200DC00E0DAE700BF2A46C2
:101700004146204600F0B4F9A100491C4FF4807214
:1017100002EBC1002021FFF769FB00BFA100491CBB
:101720004FF4807202EBC100FFF7E0FA0028F5D118
:101730000120A0400349098808430249088028463F
:101740004FE700001600002014000020F8B5044602
:101750000E4617461D4600BF082C02DD4FF0FF3035
:10176000F8BD00BF012E06D0022E10D0032E10D0DF
:10177000042E0FD10CE0042269464FF47060FFF78D
:10178000EFFA009810B96FF00200E9E705E000BF3A
:1017900000BF02E06FF00400E2E700BF05F00400C4
:1017A00010B16FF00500DBE705B3012E02D0022E69
:1017B0001AD106E005F0210010B96FF00500CFE75F
:1017C00013E005F0200028B105F0800010B96FF09B
:1017D0000500C5E705F0100028B105F0800010B93C
:1017E0006FF00500BCE700E000BF00BF2046FFF738
:1017F0007DFB05F0F00242EA0601A200521C002324
:1018000003EBC200FFF7F2FA7FB93048078800887F
:10181000401C2E490880084600884FF6F071884227
:1018200003D14FF44040294908803912A200521CCC
:101830004FF4806303EBC200FFF7D8FAF9B2A200BD
:10184000521C4FF4806303EBC20202F58070FFF775
:10185000CDFAA100491C4FF4807202EBC1000121B6
:10186000FFF7C4FA00BFA100491C4FF4807202EBDD
:10187000C100FFF73BFA0028F5D10120A040144930
:10188000098881431248018005F00100A0401049F9
:10189000098808430E4908800120A0400D490988A5
:1018A00081430C48018000200B4921F814000B49AA
:1018B000085500BFA100491C4FF4407202EBC10063
:1018C000FFF714FA0028F5D060B249E712000020B3
:1018D00014000020160000201C0900201800002021
:1018E00010B50021084600F03DF910BD10B599244F
:1018F0000E490F48FFF70EFE0E490F48FFF71EFE78
:101900000E490F48FFF72EFE0E490F48FFF744FE21
:10191000FFF7D2F9FFF7E4FF10B14FF0FF3010BD31
:1019200000F054F800F012F80020F8E76307000810
:1019300059070008A9050008BD05000805060008AC
:10194000D105000809090008F108000810B592B097
:101950004FF46450FFF7CAF9044616A103C9CDE954
:10196000040116A00068039015A00068029015A05D
:101970000068019014A00068009004980C90BDF8D5
:101980001400ADF834000398CDF836000298CDF875
:101990003A000198CDF83E000098CDF842000120B1
:1019A0008DF846000CA800F025F906A800F0ACF868
:1019B00012B010BD0008DC0102030000C0A801C77E
:1019C000FFFFFF00C0A801010808080808B50120B2
:1019D0008DF8000000208DF8010001208DF8020034
:1019E0008DF80300684600F095F908BD2DE9F04731
:1019F00004460F4616460025A8460EB9BDE8F087F6
:101A0000A100491C4FF4205202EBC10101F5807086
:101A1000FFF76CF98146A100491C4FF4205202EBFC
:101A2000C100FFF763F909EB002085B22902A0008D
:101A3000C01C01EBC008324639464046FFF790F91A
:101A4000A81985B22912A200521C4FF4205303EBAF
:101A5000C200FFF7CBF9E9B2A200521C4FF42053A9
:101A600003EBC20202F58070FFF7C0F900BFC5E7C3
:101A70002DE9F04704460F4616460025A8460EB944
:101A8000BDE8F087A100491C4FF4105202EBC101E0
:101A900001F58070FFF72AF98146A100491C4FF437
:101AA000105202EBC100FFF721F909EB002085B2CB
:101AB0002902A000801C01EBC0083246394640468E
:101AC000FFF7CEF9A81985B22912A200521C4FF4D3
:101AD000105303EBC200FFF789F9E9B2A200521CD0
:101AE0004FF4105303EBC20202F58070FFF77EF94A
:101AF00000BFC5E70146087870470170704770471E
:101B0000704770477047000010B504460622214612
:101B10004FF41060FFF724F9042204F10E01900144
:101B2000FFF71EF9042204F10A014FF4A060FFF749
:101B300017F90422A11D4FF47060FFF711F907484F
:101B40000078A07405484178E17481782175C178E6
:101B5000617503480078A07510BD00004C0000209E
:101B6000500000202DE9F04105460E46002700F008
:101B700072F8F5B100BF00240AE0285D384447B28E
:101B8000102F03DD4FF0FF30BDE8F081601C44B240
:101B9000082CF2DB00240AE0295DA200521C4FF45D
:101BA000F85303EBC200FFF721F9601C44B2082C84
:101BB000F2DBEEB10027002409E0305D384447B283
:101BC000102F02DD4FF0FF30DEE7601C44B2082C1E
:101BD000F3DB00240AE0315DA200521C4FF4F05305
:101BE00003EBC200FFF702F9601C44B2082CF2DBE1
:101BF0000020C9E710B50446062221464FF41060C4
:101C0000FFF72EF9042204F10E019001FFF728F9E5
:101C1000042204F10A014FF4A060FFF721F9042225
:101C2000A11D4FF47060FFF71BF9A07C05490870F7
:101C3000E07C4870207D8870607DC870A07D02497E
:101C4000087010BD4C00002050000020704700209C
:101C500070477047704700B585B0062269464FF45B
:101C60001060FFF77DF8042204A99001FFF778F8CF
:101C7000042203A94FF4A060FFF772F8042202A91E
:101C80004FF47060FFF76CF880210020FFF7AEF88A
:101C90000020FFF72BF8062269464FF41060FFF78B
:101CA000DFF8042204A99001FFF7DAF8042203A95F
:101CB0004FF4A060FFF7D4F8042202A94FF470603B
:101CC000FFF7CEF805B000BD10B500244FF4385032
:101CD000FFF70CF800F0010000B10124204610BD10
:101CE00010B54FF43850FFF701F8044624F0800493
:101CF00021464FF43850FFF779F84FF43850FEF78B
:101D0000F5FF044644F0800421464FF43850FFF7B5
:101D10006DF810BD70B5054600242878012802D161
:101D200044F0400401E024F040046878012802D126
:101D300044F0380412E0E878012808D1A878012896
:101D400002D144F0180409E044F0080406E0A87841
:101D5000012802D144F0100400E000BF21464FF4F6
:101D60003850FFF743F8FFF7BBFF70BD4FF04070EE
:101D7000E1EE100A70470000981D000800000020E6
:101D800054000000C4010008EC1D000854000020AD
:101D90003C0F0000E0010008C0A801BEB822401FAF
:101DA0000000000000000000000000C00000000073
:101DB00000000000000000000102573535303000FF
:101DC00000000000FF1A0008011B0008051B0008A6
:101DD000031B0008F51A0008FB1A000800000000A9
:0C1DE000000000000000000000000000F7
:040000050800018965
:00000001FF
