:020000040800F2
:1000000038070020290200083102000833020008E6
:10001000350200083702000839020008000000001D
:100020000000000000000000000000003B0200088B
:100030003D020008000000003F02000841020008E5
:10004000430200084302000843020008430200087C
:10005000430200084302000843020008430200086C
:10006000430200084302000843020008430200085C
:10007000430200084302000843020008430200084C
:10008000430200084302000843020008430200083C
:10009000430200084302000843020008430200082C
:1000A000430200084302000843020008430200081C
:1000B0002D0700084302000843020008430200081D
:1000C00043020008430200084302000843020008FC
:1000D0004302000843020008B90800084302000870
:1000E00043020008430200084302000843020008DC
:1000F00043020008430200084302000843020008CC
:1001000043020008430200084302000843020008BB
:1001100043020008430200084302000843020008AB
:10012000430200084302000843020008430200089B
:10013000430200084302000843020008430200088B
:10014000430200084302000843020008430200087B
:10015000430200084302000843020008430200086B
:10016000430200084302000843020008430200085B
:10017000430200084302000843020008430200084B
:10018000430200084302000800F002F800F03CF8C7
:100190000AA090E8000C82448344AAF10107DA45E2
:1001A00001D100F031F8AFF2090EBAE80F0013F0F8
:1001B000010F18BFFB1A43F0010318479008000015
:1001C000B0080000103A24BF78C878C1FAD85207A6
:1001D00024BF30C830C144BF04680C6070470000C1
:1001E0000023002400250026103A28BF78C1FBD840
:1001F000520728BF30C148BF0B6070471FB500F0E1
:100200001FFC1FBD10B510BD00F033F81146FFF7FD
:10021000F5FF00F0DDFB00F051F803B4FFF7F2FF4B
:1002200003BC00F0BCFB00000948804709480047B8
:10023000FEE7FEE7FEE7FEE7FEE7FEE7FEE7FEE796
:10024000FEE7FEE704480549054A064B70470000F3
:10025000C506000889010008380100203807002081
:1002600038030020380300207047704770477047FC
:100270007047754600F02CF8AE46050069465346B7
:1002800020F00700854618B020B5FFF7DBFFBDE87A
:1002900020404FF000064FF000074FF000084FF0ED
:1002A000000B21F00701AC46ACE8C009ACE8C0097E
:1002B000ACE8C009ACE8C0098D46704710B50446EB
:1002C000AFF300802046BDE81040FFF7A6BF000056
:1002D00000487047D4000020F0B50A4600210023F2
:1002E000002400BF3DE0012505FA01F3156805EA89
:1002F00003049C4234D105684F000326BE40B54339
:10030000056015794E00B5400668354305601579DE
:10031000012D02D01579022D16D185684F000326D4
:10032000BE40B543856055794E00B540866835437B
:100330008560456801268E40B543456045689679DD
:100340008E40B6B235434560C5684F000326BE40B7
:10035000B543C560D5794E00B540C6683543C56024
:10036000491C1029BFD3F0BDF0B5002300244D0770
:10037000ED0E02FA05F3CE1000F1200555F82650D7
:100380004E07F70E0F26BE40B543CF1000F12006F2
:1003900046F82750CE1000F1200555F8265045EAC2
:1003A0000304CE1000F1200545F82640F0BD41833E
:1003B000704701837047000000B587B00121042019
:1003C00000F096F80121C80300F0A2F806220A21E5
:1003D0002248FFF7C9FF06220B212048FFF7C4FF80
:1003E00006220C211D48FFF7BFFF02208DF81800E0
:1003F00000208DF81A004FF4E050059001208DF890
:100400001B0003208DF8190005A91448FFF764FFAD
:100410003820ADF80C000120ADF808000020ADF840
:1004200006000720ADF810000020ADF80400ADF87C
:100430000000ADF80E004FF48270ADF802004FF4EA
:100440000070ADF80A006946054800F0A7F80121E0
:10045000034800F089F807B000BD00000008024022
:10046000003C004070B5002100230F22C4781CB36B
:10047000174C246804F4E064C4F5E064C4F3072175
:10048000C1F10404E3B20A4144789C40E1B28478AB
:10049000144021430C07210E0E4C05786155047859
:1004A00004F01F050124AC4005786D11AD0005F185
:1004B000E025C5F8004109E0047804F01F05012497
:1004C000AC40054D0678761145F8264070BD000019
:1004D0000CED00E000E400E080E100E002490143AF
:1004E000024A1160704700000000FA050CED00E0C0
:1004F00029B1064A12680243044B1A6004E0034A19
:1005000012688243014B1A60704700003038024085
:1005100029B1064A12680243044B1A6004E0034AF8
:1005200012688243014B1A60704700004038024055
:1005300010B5044600BF02210A4800F021F8002847
:10054000F9D02146074800F027F800BF01210548EF
:1005500000F016F80028F9D0024800F01AF8C0B2EE
:1005600010BD0000003C004021B1028842F0400272
:10057000028004E002884FF6BF731A400280704781
:100580000246002013890B400BB1012000E000203F
:1005900070470146888970478181704710B50022F5
:1005A000028802F441520B884C8823438C882343F1
:1005B000CC8823430C8923434C8923438C892343D0
:1005C000CC8923431A430280838B4FF2FF7423406C
:1005D00083830B8A038210BD0CB50020019000902C
:1005E0003448006840F480303249086000BF314828
:1005F000006800F4003000900198401C01900098C1
:1006000018B90198B0F5A04FF1D12A48006800F45C
:10061000003010B10120009001E00020009000980F
:10062000012846D123484030006840F080502149DD
:10063000403108602048006840F440401E4908608E
:100640001C48083000681B490831086008460068EB
:1006500040F4004008600846006840F4A05008607C
:100660001648091F0860081F006840F08070091FC5
:10067000086000BF0F48006800F000700028F9D043
:1006800040F205700E4908600A480830006820F002
:1006900003000849083108600846006840F002007D
:1006A000086000BF03480830006800F00C0008280C
:1006B000F8D10CBD003802400070004019544007CA
:1006C000003C024010B51548006840F47000134922
:1006D00008601348006840F00100114908600020DC
:1006E0000F49083108600E4800680E4908400C495F
:1006F00008600D48091D0860081F006820F480206C
:10070000091F0860002006490C310860FFF764FFEC
:100710004FF0006001498039086010BD88ED00E0AD
:1007200000380240FFFFF6FE1030002410B5012112
:10073000880700F021F8012808D105480088401CEE
:10074000034908800121880700F007F810BD000068
:1007500000000020CA4302827047CA4302827047E9
:1007600021B1028842F00102028004E002884FF6C3
:10077000FE731A400280704730B502460020002305
:100780000024158A05EA0103958905EA010413B1DD
:100790000CB1012000E0002030BD1AB183890B4369
:1007A000838102E083898B438381704701894FF6FF
:1007B000F87211400181704700220288184B98425C
:1007C0000ED0184B98420BD0B0F1804F08D0164B8A
:1007D000984205D0154B984202D0154B984204D14F
:1007E0004FF68F731A404B881A43124B984207D02A
:1007F000114B984204D04FF6FF431A400B891A431D
:1008000002804B68C3620B880385054B984202D077
:10081000044B984201D18B7A03860123838270476F
:1008200000000140000401400004004000080040B6
:10083000000C004000100040001400401FB50121D2
:100840000846FFF765FE4FF08040FFF7AFFF00203E
:10085000ADF80C00ADF8060042F20F70029042F2C3
:10086000CF00ADF8040000208DF80E0001A94FF074
:100870008040FFF7A1FF01218807FFF76BFF0122EE
:1008800011469007FFF789FF4FF4A060FFF726FE9F
:100890001C208DF8000001208DF8030002208DF847
:1008A000010001208DF802006846FFF7DBFD012101
:1008B0008807FFF755FF1FBD10B540F225511D48B1
:1008C00000F03EF810B31B4800F064F8C4B21A48B8
:1008D000008800F40040C8B91748008800F4804040
:1008E00060B10A2C03D000201349088020E0124890
:1008F000008840F400401049088019E00D2C06D112
:100900000D48008840F480400B49088010E00A48F8
:100910000088C0F30D0009490C5407480088401CAA
:100920000549088008460088C72801DD00200880A6
:1009300010BD000000440040080000200C00002012
:1009400070B50246002400230025002040F66A16F8
:10095000B14200D100BFC1F3421501F01F030126CF
:1009600006FA03F3012D02D19689334006E0022DE9
:1009700002D1168A334001E0968A33400C120126D8
:1009800006FA04F41688344013B10CB1012000E0DB
:10099000002070BD01468888C0F30800704700BF82
:1009A000704700000EB501210420FFF7B1FD532070
:1009B00001900020ADF80000ADF80800ADF802008D
:1009C00069460248FFF7F8FE0EBD0000000800402F
:1009D0001CB5FFF7E7FFFFF731FFFFF7EDFC012044
:1009E0008DF8040000208DF80600012000900320FF
:1009F0008DF8050002208DF8070001210846FFF759
:100A000077FD69460C48FFF767FC13E00B4908883F
:100A100000EBD0714910A0EB410139B90121064822
:100A2000FFF7C7FC3020FFF783FD03E001210248F8
:100A3000FFF7BDFCEAE700000000024000000020D4
:100A40004FF04070E1EE100A704700006C0A000899
:100A5000000000200C000000C4010008780A000813
:100A60000C0000202C070000E0010008000000003E
:080A700000000000000000007E
:040000050800018965
:00000001FF
